:020000040800F2
:1030000000000120256B00083D3400084134000811
:1030100045340008493400084D3400080000000021
:10302000000000000000000000000000553400080F
:1030300051340008000000005934000865350008CC
:103040005D34000861340008653400086934000804
:103050006D340008713400087534000879340008B4
:103060007D34000881340008853400080000000029
:103070000000000000000000000000000000000050
:103080000000000000000000A5340008A93400087A
:10309000AD340008B1340008B5340008B934000874
:1030A000BD340008C1340008C5340008C934000824
:1030B000CD340008D1340008D5340008D9340008D4
:1030C000DD340008E1340008E5340008E934000884
:1030D000ED34000859350008F13400084D3500087A
:1030E000F5340008F9340008FD3400080135000803
:1030F00005350008093500080D35000811350008B0
:1031000015350008193500081D350008213500085F
:103110002535000841350008293500082D350008FF
:103120003135000835350008393500083D350008CF
:043130005FF8000044
:10313400F0B581B001F0DEFD9C4800F07DFC00207C
:10314400012101F069FA9A4800F076FC062001F0AA
:1031540097F9000980B200F037FC964800F06CFC47
:1031640001F006FA944800F067FC944B944C1868FC
:1031740000F02AFC934800F05FFC934800F05CFCEC
:10318400924B186800F020FC8E4800F055FC9048E3
:1031940000F052FC206800F017FC8A4800F04CFC58
:1031A40000F0DEFCC0B26C2813D100F04FFB89485C
:1031B40000F042FC0020012101F02EFA032001213D
:1031C40001F02AFA0120012101F026FA022001214E
:1031D40014E06F2815D100F039FB7F4800F02CFC77
:1031E4000020002101F018FA0320002101F014FA54
:1031F4000120002101F010FA0220002101F00CFA54
:10320400D0E06D2866D1206800F070FF002701250A
:10321400EEB20321304600F02BFFABB280B29842ED
:103224004DD16E4800F008FC284600F0CDFB6C48F8
:1032340000F002FC0021304600F0D2FE044600F00B
:10324400D1FC10F0020F02D100F0FCFB0BE065484A
:1032540000F0F2FB2421304600F0C2FE00F0B4FB83
:10326400614800F0E9FB204600F0AEFB0C2C08BFDF
:103274005E4814D0122C08BF5D4810D00D2C08BF36
:103284005C480CD0D42C08BF5B4808D044F20B3304
:103294009C4208BF594802D01D2C02D1584800F066
:1032A400CBFB7B1C4E48DFB200F0C6FB022130464C
:1032B40000F0DEFE00F088FB524800F0BDFB013553
:1032C400FA2DA5D1504800F0B7FB384600F07CFB3E
:1032D4004E4865E0622807D14D4800F0ADFB9620CA
:1032E400C82101F0AFF95DE0692826D1494800F012
:1032F400A3FB002001F05EF900F02CFB384800F03D
:103304009BFB052001F056F900F024FB344800F043
:1033140093FB042001F04EF900F01CFB3E4800F042
:103324008BFB4FF4967045F6CE61012201F0A8F9AB
:103334004FF4FA6001F0CCF934E0002001F05AF9BE
:1033440008B136482CE0012001F054F908B13448A2
:1033540026E0022001F04EF908B1324820E00320B3
:1033640001F048F908B130481AE0042001F042F9AC
:1033740018B12E4800F060FB0AE0052001F03AF98C
:1033840068B12B4800F058FB0120012101F044F9F9
:10339400C82044F20671012201F072F902E02548C6
:1033A40000F04AFB642001F093F9CCE68C6B000832
:1033B400B86B0008CA6B0008D76B0008D400002063
:1033C400CC000020DC6B0008E36B0008D000002078
:1033D400E86B0008ED6B0008036C00081A6C000829
:1033E400216C00081C6C0008206C0008246C000888
:1033F4002D6C0008366C00083F6C0008496C00080E
:10340400536C00085C6C0008606C00086E6C00086B
:10341400996C0008AE6C0008E06B0008C46C0008EE
:10342400DB6C0008F86C0008156D0008356D0008A9
:10343400556D0008D36D00087047C046FEE7C046CE
:10344400FEE7C046FEE7C046FEE7C0467047C046FA
:103454007047C0467047C0467047C0467047C04674
:103464007047C0467047C0467047C0467047C04664
:103474007047C0467047C0467047C0467047C04654
:103484007047C0467047C0467047C0467047C04644
:103494007047C0467047C0467047C0467047C04634
:1034A4007047C0467047C0467047C0467047C04624
:1034B4007047C0467047C0467047C0467047C04614
:1034C4007047C0467047C0467047C0467047C04604
:1034D4007047C0467047C0467047C0467047C046F4
:1034E4007047C0467047C0467047C0467047C046E4
:1034F4007047C0467047C0467047C0467047C046D4
:103504007047C0467047C0467047C0467047C046C3
:103514007047C0467047C0467047C0467047C046B3
:103524007047C0467047C0467047C0467047C046A3
:103534007047C0467047C0467047C04600B581B06A
:1035440001F000FE01B000BD00B581B001F0B2FE93
:1035540001B000BD00B581B001F0C6FC01B000BDF2
:1035640000B581B001F018F901B000BD034B1A8811
:10357400034B1888801A18BF01207047DA04002012
:10358400D8040020DFF820C00848BCF800200388D5
:1035940005499342F9D00B88054A9BB2D05C0B884D
:1035A40001339BB20B807047DA040020D80400205A
:1035B400D8000020F0B5002883B0044604DAC0F136
:1035C40000042D2001F07CFE0027134E019794FB8C
:1035D400F6F3DDB23DB105F13000C0B201F070FE8A
:1035E4000121019104E0019B13B1302001F068FE38
:1035F4000A4906FB154486FB0123F117C1EBA30618
:103604007B1CDFB2092FE2D194FBF6F03030C0B25C
:1036140001F056FE03B0F0BD00CA9A3B67666666C9
:10362400F0B5002883B0054602DB0021019104E0D7
:10363400C0F1000301221DB201920027009742F25B
:103644001076009995FBF6F39CB281F00103002CEF
:103654000CBF002303F0010363B1019A12B12D20C2
:1036640001F02EFE04F13000C0B201F029FE012366
:1036740000930CE0009919B104F13000C0B204E0E9
:10368400042F01D0202000E0302001F019FE7B1C23
:10369400DFB2052F08D006FB145304491DB2A6FB64
:1036A4000123DB089EB2CCE703B0F0BDCDCCCCCC7B
:1036B400F0B5002883B0054602DB0021019104E047
:1036C400C0F1000301225DB20192002300930027A0
:1036D400642695FBF6F39CB287F00103002C0CBF23
:1036E400002303F001035BB1019911B12D2001F016
:1036F400E7FD04F13000C0B201F0E2FD012707E06C
:103704001FB104F13000C0B200E0202001F0D8FD68
:10371400009A531CDBB2032B009308D006FB14530E
:1037240004495DB2A6FB0123DB089EB2D1E703B0D6
:10373400F0BDC046CDCCCCCCF0B5002683B0124C45
:1037440007460196B7FBF4F53DB105F13000C0B270
:1037540001F0B6FD0121019108E0019B1BB9032E84
:1037640001D8202000E0302001F0AAFD731CDEB255
:103774000A2E06D0054904FB1577A4FB0123DC08B7
:10378400E0E703B0F0BDC04600CA9A3BCDCCCCCC38
:10379400F0B5002683B00746019642F21074B7FBD9
:1037A400F4F53DB105F13000C0B201F089FD01210D
:1037B400019108E0019B1BB9042E01D0202000E0F8
:1037C400302001F07DFD731CDEB2052E08D004FB11
:1037D400157304499FB2A4FB0123DB089CB2DEE706
:1037E40003B0F0BDCDCCCCCC164A30B5A0FB02233F
:1037F4005C09E4B2054604F1300081B0C0B201F0C6
:103804005FFDC4EB446304EB8303C4EBC30405EB27
:1038140084050D4AEDB2A5FB0223DC08E4B204F1F1
:103824003000C0B201F04CFDC4EB44733035C4EB3E
:10383400830405EB4405EDB2284601F041FD01B0D7
:1038440030BDC0461F85EB51CDCCCCCC0A2810B579
:10385400044618BF004603D10D2001F031FD0A20B3
:1038640001F02EFD204610BD00B581B0FFF7EEFF3C
:1038740001B000BD30B5054681B0002402E001343A
:10388400FFF7E4FF285D0028F9D1204601B030BDE0
:1038940000B5302383B08DF8033078238DF80430DD
:1038A40000238DF8073003093033392B8DF80530A8
:1038B40002D907338DF8053000F00F0303F130000F
:1038C40039288DF8060002D9C31D8DF806300DF194
:1038D4000300FFF7CFFF03B000BDC04600B530239F
:1038E40083B08DF8013078238DF8023000238DF8F1
:1038F4000730030B3033392B8DF8033002D90733EB
:103904008DF80330030A03F00F033033392B8DF89D
:10391400043002D907338DF80430030903F00F0390
:103924003033392B8DF8053002D907338DF8053043
:1039340000F00F0303F1300039288DF8060002D996
:10394400C31D8DF806300DF10100FFF793FF03B09E
:1039540000BDC04600B585B004A92B23184ADFF882
:1039640064E001F80C3D0DF10E0CB0FBF2F302FB28
:10397400130003F00F03303301F8013FA2FB0E23C1
:10398400DA086145F1D100238DF80F3000210DF1E3
:1039940005009DF80430302B08D10246137802F854
:1039A400013C1BB1013204AB9A42F7D14B1CD9B292
:1039B4000B29EED101A8FFF75DFF05B000BDC0469D
:1039C40000CA9A3BCDCCCCCC00B5194A85B0DFF8FF
:1039D40064C000210DF1050EB0FBF2F302FB1300ED
:1039E40003F00F0330330EF80130A2FB0C23013136
:1039F400DA080A29F0D100238DF80F3000210DF1E7
:103A040006009DF80530302B08D10246137802F8E1
:103A1400013C1BB1013204AB9A42F7D14B1CD9B221
:103A24000A29EED10DF10500FFF724FF05B000BD12
:103A340000CA9A3BCDCCCCCC00B581B0FFF71AFFBD
:103A440001B000BD10F0040F10B5044602D01748B1
:103A5400FFF710FF14F0080F02D01548FFF70AFF14
:103A640014F0100F02D01348FFF704FF14F0200FD6
:103A740002D01148FFF7FEFE14F0400F02D00F48A9
:103A8400FFF7F8FE14F4007F02D00D48FFF7F2FEB2
:103A940014F4806F02D00B48FFF7ECFE14F4805F3F
:103AA40002D00948FFF7E6FE10BDC046E66D0008E7
:103AB400186E00084C6E0008796E0008A26E0008AB
:103AC400E16E00080F6F00083B6F000800B501208D
:103AD40081B000F0A5F8012802D11A48FFF7CAFE08
:103AE400022000F09DF8012802D11748FFF7C2FE1A
:103AF400042000F095F8012802D11448FFF7BAFE1B
:103B0400082000F08DF8012802D11148FFF7B2FE19
:103B1400102000F085F8012802D10E48FFF7AAFE14
:103B2400202000F07DF8012802D10B48FFF7A2FE07
:103B3400402000F075F8012802D10848FFF79AFEEA
:103B440001B000BD6F6F0008866F00089B6F00080E
:103B5400AD6F0008C36F0008D56F0008E76F000859
:103B640000B50A2081B001F0C3FB01F0D9F818B9FF
:103B740001F01EF90028F8D001F01AF908B9FF2065
:103B840004E001F0D7F80D2808BF0A2001B000BDF9
:103B940000B581B0FFF7E4FF01B000BDF0B5064603
:103BA40081B00D4600244F1C07E0FFF7D9FFC0B2D7
:103BB4000A2830550CBF3C460134AC42F5DB304694
:103BC40001B0F0BD00B581B001F01AFA01B000BD3A
:103BD40000B581B001F086FA003818BF012001B0A9
:103BE40000BDC046014B188880B270470000002019
:103BF400014B98707047C046DC040020014B1871DB
:103C04007047C046DC040020014B1B1859717047F3
:103C1400DC040020014BD8707047C046DC0400204F
:103C2400064B1B8813F0080F01D0802005E0044BDD
:103C34001B7918420CBF00200120704700000020AF
:103C44007C050020044B1B8813F0080F01D00020D2
:103C540001E0024BD8787047000000207C0500206A
:103C6400054B1B8813F0080F01D0002002E0034B22
:103C74001B1858797047C046000000207C050020BE
:103C840000EB012080B27047C0B27047000A704751
:103C94000C4AD1784B1EDBB24E2B0AD810460023B7
:103CA4000331002202E0C2540133DBB29942FADA52
:103CB40006E00023137053709370D3701371537123
:103CC4007047C0467C05002030B55A4981B00B7856
:103CD400002B00F0AD8001230B70574B574A9B78A3
:103CE400FE2B00F0A080138813F0010F05D0544B75
:103CF40000221A70534B06221A70514D514C2B78E6
:103D040021785148C91AC018C9B201F0B5F82B7806
:103D1400C0182378C0B28342287003D901F0DAF8BE
:103D2400012808D0464B00201A78474902F1FF3C8D
:103D3400A2F1020E19E02B78404A13B94FF48063C4
:103D440001E04FF40063138035E00B5CFF2B04D1DA
:103D540001EB00035B78FF2B09D0704503D111F808
:103D64000C30FF2B03D0431CD8B26045EDDB88B187
:103D74000021C0EB020CDFF8D0E006E00EEB0103FB
:103D84001B5C0EF801304B1CD9B26145F6DB2C4BA1
:103D9400121A1A702A4D2B4C95F800C023786345EB
:103DA40026D8254B28489A7883789A4207D0234B03
:103DB4004FF048021A801F4B00221A7038E0C37873
:103DC4000433D9B28C4521700CD2CCEB0101604490
:103DD400C9B201F051F82B78C0182378C0B28342DD
:103DE400287005D8184B0021D87800229C460BE097
:103DF400124B4FF400721A801AE00CEB01039B780B
:103E04001344DAB24B1CD9B28842F6DA0E4B6FEA8D
:103E140002021B18DB78D2B293420649074A18BF44
:103E240041F2080301D14FF00203138000230B7009
:103E340001B030BDCE050020DC04002000000020CD
:103E4400CD050020CC0500207C05002030B5DFF82E
:103E5400ECC081B09CF80030012B6CD038480123B1
:103E64004FF000028CF800300280364A0024D378E8
:103E7400A22B04D903889BB243F0100312E01179FA
:103E84004A1ED2B2B1F1830318BF0123052A94BF9D
:103E9400002303F001034BB10E2907D003889BB222
:103EA40043F0200303808CF8004044E0254A4FF09F
:103EB400FF331370537092F803C00021002006E012
:103EC40002EB01039B780344D8B24B1CD9B28C4556
:103ED400F6DA1C4B6FEA00026344DA70184B1B8855
:103EE40023F4647323F00703DB04DB0C0BB100F051
:103EF400ADFF144DEC7828460434E4B2214601F0B9
:103F040039F8844209D00E4A13889BB243F0040363
:103F140013800A4B00221A700DE02B79022B03D177
:103F2400A8790630C0B200E0062001F019F8044B6D
:103F34004FF001021A8001B030BDC046CE0500200A
:103F440000000020DC04002010B5FFF77FFF144BB5
:103F54001B8813F0010F21D0124AD1784B1EDBB21B
:103F64004E2B0AD8104600230331002202E0C2542B
:103F74000133DBB29942FADA06E00023137053707E
:103F84009370D37013715371054CFFF79DFE32206B
:103F940000F07EFB238813F4007FF6D110BDC046E9
:103FA400000000207C05002000B594460A4A81B038
:103FB4001378002BFCD1094A032313714FEA1C2305
:103FC400D37105239070517182F806C0D370FFF746
:103FD400BBFF01B000BDC046CE050020DC040020BC
:103FE40000B50F4A81B01378002BFCD10D4A02238F
:103FF400137193710423D37090705171FFF7A4FF70
:10400400094B1B8813F0080F01D0002005E0074B73
:104014009A795B7903EB022398B201B000BDC046E4
:10402400CE050020DC040020000000207C050020D8
:1040340000B59446084A81B01378002BFCD1074B95
:1040440003221A7104229870597183F806C0DA7039
:10405400FFF77AFF01B000BDCE050020DC0400208C
:1040640000B5002181B00022FFF7E2FF01B000BDDE
:1040740000B50D4A81B01378002BFCD10B4A022302
:104084001371012393710423D37090705171FFF75E
:104094005BFF074B1B8813F0080F01D0002001E0E1
:1040A400044B587901B000BDCE050020DC0400208B
:1040B400000000207C05002000B5074A81B0137879
:1040C400002BFCD1054B01221A7102229870DA7080
:1040D400FFF73AFF01B000BDCE050020DC0400204C
:1040E40000B581B000F070FF01B000BD00B581B033
:1040F40000F090FF38B1054B4FF002021A80044BD8
:1041040000221A70012001B000BDC046000000204A
:10411400CE050020024B00221A70024B188870470B
:10412400E4050020E2050020014B18787047C046E2
:10413400E5050020014B18787047C046E6050020CD
:10414400014B18787047C046E7050020014B1878EA
:104154007047C046E8050020014B18787047C046F8
:10416400E9050020024B00221A7000207047C04667
:10417400E4050020014B187880387047E5050020DD
:10418400014B187880387047E6050020014B1878F9
:1041940080387047E7050020014B18788038704755
:1041A400E8050020034B1878034B1B78C01A18BF8E
:1041B40001207047D0050020D105002070B53E4B8A
:1041C4001B78012B01D1012075E03C4C2378082B8E
:1041D40009D83B48C3F10901C018C9B200F00CFE6C
:1041E4002378C0182070354B93F800C0BCF1010F40
:1041F4002CD90022324D0CF1FF340AE0AB5C05EB04
:104204000201FF2B04D1944202DD4B78552B03D0DD
:104214000132D0B26045F1D3C0B1604507D1284B1B
:104224001B1813F8013CFF2B01D1431ED8B20146E1
:10423400234C05E0625CC0EB0103E2544B1CD9B291
:104244006145F7D31D4BC0EB0C021A701B4B1B7856
:10425400092B2DD11A4E3378FF2B24D17378552B8B
:1042640021D1B578174BF4781D70174B96F804C01C
:104274001C70164B164A83F800C07379B07913701A
:10428400144A63445B191B191070F179124A1B1804
:10429400117003F0FF03327AC3F1FF039A4202D193
:1042A400054B01221A70064A00231370034A137047
:1042B400014B1B78184670BDE4050020E105002081
:1042C400D8050020E7050020E8050020E5050020CA
:1042D400E6050020E9050020EA05002030B5394B49
:1042E40081B01B78012B01D1012068E0364C237882
:1042F400052B09D83548C3F10601C018C9B200F02E
:104304007BFD2378C01820702F4B93F800C0BCF1BC
:10431400010F2CD900222D4D0CF1FF340AE0AB5CC7
:1043240005EB0201FF2B04D1944202DD4B78552B9F
:1043340003D00132D0B26045F1D3C0B1604507D19A
:10434400224B1B1813F8013CFF2B01D1431ED8B29A
:1043540001461E4C05E0625CC0EB0103E2544B1CB9
:10436400D9B26145F7D3184BC0EB0C021A70164B47
:104374001B78062B20D1154A1378FF2B17D15378BD
:10438400552B14D1D37890786FEA0303DBB29842AB
:104394000DD1537911796FEA0303DBB2994206D147
:1043A4000B4B00EB01221A80064B01221A70074ABC
:1043B40000231370044A1370024B1B78184601B093
:1043C40030BDC046E4050020E1050020D2050020F0
:1043D400E205002000B5C2B283B0000A8DF80600E1
:1043E4004FF0FF336FEA00008DF802308DF804209F
:1043F40055236FEA02028DF8070006210DF1020031
:104404008DF803308DF8052000F0E4FE062814BF73
:104414000020012003B000BD00B581B000F0DEFD36
:1044240001B000BD00B581B000F024FE48B1064BD8
:1044340000221A70054B4FF000011980044B012033
:104444001A7001B000BDC046E4050020E20500205A
:10445400E105002000B5094B81B0C20031B153F829
:1044640030009B18998801F01BFC05E053F83000DC
:104474009B18998801F016FC01B000BD04000020CF
:1044840010B5D0F1010438BF0024032814BF23461B
:1044940044F0010323B13348022101F003FC0DE091
:1044A400012814BF00240124042814BF234644F027
:1044B400010343B12B48022101F0F2FB29480421F6
:1044C40001F0F0FB11E0022814BF002401240528A8
:1044D40014BF234644F0010303B32248022101F030
:1044E400E1FB2048042101F0DBFB052000F0D0F8BB
:1044F40044B11D48012100F06BFF052000F0C8F80D
:10450400194807E01948012100F062FF052000F076
:10451400BFF8164800F0D4FF044621E0062818BF6F
:104524004FF400441CD1012207230D210E4800F052
:1045340071FF052000F0ACF801210B4800F048FFA2
:10454400052000F0A5F8084800F0BAFF0A21044647
:1045540001220548072300F05DFF052000F098F8CC
:10456400204610BD001001400024014000280140F5
:1045740000B5062081B0FFF783FF000980B27228DE
:1045840015D84FF4FA70642100F05CF84FF4FA7017
:1045940041F2883100F056F84FF4FA70642100F0CB
:1045A40051F84FF4FA7041F2883100F04BF801B041
:1045B40000BDC04670B54400E6B201340546012191
:1045C4003046E4B2FFF746FF00212046FFF742FFE2
:1045D400192000F05DF82846FFF752FF0021054638
:1045E4003046FFF737FF20460021FFF733FF284608
:1045F40070BDC04600B5074B81B053F8302003EBC3
:10460400C0039988104601F037FB013818BF012018
:1046140001B000BD6400002000B5094B81B0C200A8
:1046240031B153F830009B18998801F03BFB05E049
:1046340053F830009B18998801F032FB01B000BD9B
:104644009400002030B581B00C460B4D00F04CF8BE
:104654000DE04021094801F025FB204600F018F840
:104664000648402101F01CFB204600F011F82B689D
:10467400002BEED101B030BDFC0500200008014044
:1046840000B5114181B0FFF7DDFF01B000BDC046A8
:104694000C4B1B6823B90C4A13780133DBB213703B
:1046A4000928084904D9094AA0FB0223DB0800E0D1
:1046B40001230B60044B034A1B781368002BFCD1C5
:1046C4007047C046EC05002000060020CDCCCCCCC1
:1046D40000B5C0EB401300EB830081B0C000FFF7CE
:1046E400D7FF01B000BDC046074B1B6823B9074A7A
:1046F40013780133DBB21370642303FB00F3024A23
:104704001360024B1B787047FC0500200006002054
:104714000A4B1B6823B90A4A13780133DBB21370BE
:104724000928064904D9074AA0FB0223DB0800E054
:1047340001230B60024B1B787047C046F405002030
:1047440000060020CDCCCCCC0A4B1B6823B90A4A06
:1047540013780133DBB213700928064904D9074AD8
:10476400A0FB0223DB0800E001230B60024B1B7853
:104774007047C046F805002000060020CDCCCCCC04
:10478400034B04491A68A2FB012358097047C04629
:10479400040600201F85EB51374B10B51A6801320F
:1047A4001A60364A1368012B03D91368013B13605E
:1047B40009E013683BB11368013B1360304A137876
:1047C400013BDBB213702F4C2368012B0ED92368F5
:1047D400013B2360236813F4805F02D0062001218B
:1047E40001E006200021FFF717FF0DE023685BB10D
:1047F40006200021FFF710FF2368214A013B2360B4
:104804001378013BDBB213701F4A1368012B03D9E1
:104814001368013B136009E013683BB11368013B63
:104824001360174A1378013BDBB21370174A1368FD
:10483400012B03D91368013B136009E013683BB1F2
:104844001368013B13600E4A1378013BDBB213700B
:104854000F4A1368012B03D91368013B136009E065
:1048640013683BB11368013B1360054A1378013B9D
:10487400DBB2137010BDC04604060020EC05002016
:1048840000060020F0050020FC050020F4050020AF
:10489400F805002000B50B4B81B01B6823B90A4A08
:1048A40013780133DBB21370642303FB00F3054A6E
:1048B40006201360044B01211B78FFF7ADFE01B005
:1048C40000BDC046F00500200006002000B56420AD
:1048D40081B0FFF7FDFE0A4B1868FFF779F96420F1
:1048E400FFF7F6FE074B1868FFF79CFD6420FFF7FF
:1048F400EFFE054B1868FFF7F9FB01B000BDC04699
:10490400D4000020D0000020CC00002000B55A20A4
:1049140081B001F0ABFE012001F0C4FE012001F0E2
:10492400ABFE024B00221A7001B000BD000600204D
:1049340070B586B001AD284600F008FD00240223BE
:104944004FF46026324829468DF8143001948DF8CE
:1049540008408DF809400396049400F0D3FC012329
:104964002C4829468DF8143001948DF808408DF8B0
:1049740009400396049400F0C5FC25480A2101224D
:10498400072300F047FD012207232248052100F0F8
:1049940041FD1F48012100F0E3FC1E48012100F005
:1049A400DFFC1B4800F0FCFC194800F0FFFC002869
:1049B400FAD100F1804000F5943000F0F1FC154884
:1049C40000F0F4FC0028FAD100F1804000F59230A8
:1049D40000F0F2FC0E4800F0F5FC0028FAD100F1DA
:1049E400804000F5943000F0E7FC0A4800F0EAFC4F
:1049F4000028FAD100F18040012100F5923000F046
:104A0400E7FC0448012100F0E3FC06B070BDC04699
:104A14000024014000280140F0B583B001AC714D81
:104A24002046032601F020F9102740F60F132846EC
:104A34002146ADF804308DF806608DF8077001F05A
:104A4400BFF84FF4825328462146ADF804308DF860
:104A540006608DF8077001F0B3F84FF02003ADF84D
:104A6400043028464FF0000321468DF8073001F04A
:104A7400A7F84CF20003ADF8043028464FF0480381
:104A840005F5806521468DF8073001F099F84FF25D
:104A9400000328462146ADF804308DF806608DF8F1
:104AA400077001F08DF84FF0300328462146ADF829
:104AB40004308DF806608DF8077001F081F84FF42A
:104AC4000863ADF8043028464FF0040321468DF8FE
:104AD400073001F075F84FF48863ADF804302846C8
:104AE4004FF0180321468DF807308DF8066001F069
:104AF40067F84FF00803ADF8043028464FF0480338
:104B040005F5806521468DF8073001F059F84FF41A
:104B1400707328462146ADF804308DF806608DF890
:104B2400077001F04DF84FF0060328462146ADF812
:104B340004308DF806608DF8077001F041F84EF2EC
:104B4400000328462146ADF804308DF806608DF840
:104B5400077001F035F84FF48053ADF8043028465F
:104B64004FF0180321468DF807308DF8066001F0E8
:104B740027F84FF00903ADF8043028464FF000033E
:104B840021468DF8073001F01BF84FF01003ADF803
:104B9400043028464FF0480321468DF8073001F0D1
:104BA4000FF84FF44063ADF8043028464FF0480343
:104BB40021468DF8073001F003F84FF00403214635
:104BC4000948ADF804308DF8073000F0F9FF0420EF
:104BD400012101F08FF80548012101F08BF803B0A1
:104BE400F0BDC0460008014000140140000430003C
:104BF40070B54FF4405182B04FF0006001F0F4F909
:104C040001AD4FF4C06001F051F9012425230026C1
:104C140028468DF804308DF805608DF806408DF82F
:104C2400074001F04DF927238DF80430284603236B
:104C34008DF806308DF805608DF8074001F040F9D5
:104C440035238DF80430284602238DF805608DF84D
:104C540006308DF8074001F033F902B070BDC0464C
:104C640000B581B001F022FB4FF4803001F03EFB2F
:104C740001F056FB012824D1102000F025FD02206C
:104C840000F00AFD002001F095FB002001F0A6FBD6
:104C94004FF4806001F098FB4FF480304FF4E01142
:104CA40001F066FB012001F06DFB392001F096FC58
:104CB4000028FAD0022001F06BFB01F073FB0828F6
:104CC400FBD1012140F21C6001F03EFC01214FF4B4
:104CD400804001F039FC01214FF4802001F042FCB6
:104CE4004FF48010012101F03DFC012001F06EFA27
:104CF40001B000BD00B5094B002281B01A70FFF766
:104D0400AFFFFFF775FFFFF787FEFFF7FFFDFFF724
:104D14000FFEFFF7DBFD01B000BDC0460C0600200E
:104D2400034B1868D0F1010038BF00207047C0461B
:104D3400F80500200B4B0C491A880B88934201D1CB
:104D4400FF200EE00B88094A9BB2D25C01339BB270
:104D54000B8010460A8840F2FE339A4284BF002337
:104D64000B807047160A0020180A00201406002041
:104D7400064B07491A880B88934201D1FF2004E0AF
:104D84000B88044A9BB2D35C18467047160A00206D
:104D9400180A002014060020034B4FF000021A806A
:104DA400024B1A807047C046160A0020180A0020D9
:104DB4000F4910480A880388934205D14FF0000335
:104DC4000B800380002011E002880B88934206D9EF
:104DD4000A88038892B29BB2D21AD0B206E00B883A
:104DE40002889BB292B2013B9B1AD8B27047C0466C
:104DF400160A0020180A0020F0B54FF0000C0C46EB
:104E040083B005460E490F4F002611E00E4B0A7879
:104E14001B789A4211D00B78FA5C0133DBB205F8A7
:104E24000C200B700B780CF1010C3F2B88BF0E701B
:104E34005FFA8CF0A042E9D3204603B0F0BDC0462F
:104E4400130600201A0A0020120600200748002337
:104E5400002140F2FF32C15401339342FBD1044B91
:104E64004FF000021A80034B1A8070475B0A00203F
:104E7400100600200E060020F0B54FF0000C0C4682
:104E840083B005461049114F40F2FE3614E0104B32
:104E94000A881B88934214D00B889BB2FA5C0133B6
:104EA4009BB205F80C200B800B880CF1010C9BB213
:104EB400B34284BF00230B805FFA8CF0A042E6D398
:104EC400204603B0F0BDC046100600205B0A002057
:104ED4000E060020034B1868D0F1010038BF0020F3
:104EE4007047C046F405002000B5194881B040F26F
:104EF400255101F017FD002828D0154801F0A4FC25
:104F0400144940F2FD330A88C0B29A42124A05D8C5
:104F14000B889BB2D05401339BB204E00B889BB244
:104F2400D0544FF000030B800A4A0C490B881288B6
:104F34009A4203D10B8801339BB20B80074940F29C
:104F4400FE330A889A4284BF00230B8001B000BD5F
:104F5400003801400E0600205B0A002010060020E5
:104F640000B5C0EB001081B04000FFF7D1FB01B0E9
:104F740000BDC04670B506460D4600241AE0104830
:104F8400202100F08FFE0E48102100F089FE315DD3
:104F94000C4801F055FC0B48402101F0B7FC0028F7
:104FA400F9D00748102100F07DFE0548202100F0CB
:104FB40077FE0134E3B2AB42E1D3284670BDC0466C
:104FC400000C01400038014000B5034881B00021C5
:104FD40001F0BCFB01B000BD0038014000B5002168
:104FE40081B0054801F0B2FB04484FF4805100F051
:104FF40059FE01B000BDC046005000400008014009
:1050040000B5034881B0002101F0A0FB01B000BD50
:105014000048004030B585B00446684601F06AFB9C
:105024000094134C4FF00003ADF80430ADF8063093
:10503400ADF80830ADF80C3020464FF00C03ADF855
:105044000A3001F0EBFC0A20FFF742FB20466946D8
:1050540001F096FC2046012240F2255101F084FB28
:105064002046012101F072FB6D46012005B030BDE0
:105074000038014030B585B00446684601F03AFB7B
:105084000094164C4FF00003ADF80430ADF8063030
:10509400ADF80830ADF80C3020464FF00C03ADF8F5
:1050A4000A3001F0BBFC0A20FFF712FB20466946D8
:1050B40001F066FC0122204640F2255101F054FB28
:1050C4002046012101F042FB05484FF4805100F0D5
:1050D400E9FD6D46012005B030BDC04600500040DA
:1050E4000008014030B585B00446684601F002FB73
:1050F4000094134C4FF00003ADF80430ADF80630C3
:10510400ADF80830ADF80C3020464FF00C03ADF884
:105114000A3001F083FC0A20FFF7DAFA20466946D8
:1051240001F02EFC2046012240F2255101F01CFB27
:105134002046012101F00AFB6D46012005B030BD77
:105144000048004010B51E4840F2255101F0EAFB2A
:10515400002834D01A4801F077FBC4B2232C194A32
:1051640003D113780133DBB200E000231370154B35
:10517400012105201B78FFF74FFA134A13491378CE
:105184003E2B04D81378CC540133DBB202E01378FD
:10519400CC54002313700E490B4A0B7812789342B7
:1051A40003D10B780133DBB20B70094A13783F2B20
:1051B40001D90023137005200021FFF72DFA10BD3B
:1051C40000500040140A0020120600201A0A002091
:1051D4001306002070B506460D46002412E0042094
:1051E4000121FFF719FA315D094801F029FB08484C
:1051F400402101F08BFB0028F9D004200021FFF7A7
:105204000BFA0134E3B2AB42E9D3284670BDC04681
:105214000050004010B5224840F2255101F082FBB5
:1052240000283BD01E4801F00FFBC4B2232C1D4ABA
:1052340003D113780133DBB200E000231370194B60
:10524400012105201B78FFF7E7F9174940F2FD33E8
:105254000A889A42154A05D80B889BB2D454013364
:105264009BB204E00B889BB2D4544FF000030B8034
:105274000D4A0F490B8812889A4203D10B880133D7
:105284009BB20B800A4940F2FE330A889A4284BFDB
:1052940000230B8005200021FFF7BEF910BDC04696
:1052A40000480040140A0020160A002014060020BA
:1052B400180A002000B581B0FFF7ACFF01B000BDB3
:1052C40010B5044601210420A4B2FFF7A5F907484C
:1052D400214601F0B5FA0548402101F017FB0028EA
:1052E400F9D004200021FFF797F910BD00480040D1
:1052F40000B50346C82081B000FB03F0FFF724FA91
:1053040001B000BD43680A6823F4702323F480735A
:1053140013430A7943EA02234360CB688A68D0F8CE
:1053240008C01A43084B0CEA03031A434B7942EAB8
:10533400430282600B7CC26A013B22F47002DBB23E
:1053440042EA0352C2627047FDF7F1FF0023036093
:10535400037143718360C360012303747047C046C3
:1053640019B1836843F0010302E0836823F0010369
:105374008360704719B1836843F4807302E08368E3
:1053840023F4807383607047C9B21AB1436841EA59
:10539400030302E0436823EA010343607047C04605
:1053A400836843F0080383607047C0468068C00880
:1053B40000F001007047C046836843F00403836033
:1053C4007047C0468068800800F001007047C046FE
:1053D40019B1836843F4A00302E0836823F4A003B3
:1053E400836070478068800D00F001007047C046FC
:1053F4004368013923F4604343EA4133436070470F
:1054040019B1436843F4006302E0436823F4006382
:1054140043607047092930B594460C461D464FEA4F
:1054240041020BD912191E3A0723934015FA02F2CE
:10543400C16821EA03011143C16009E0121907237D
:10544400934015FA02F2016921EA03011143016153
:10545400BCF1060F0CD80CEB8C02053A1F239340C9
:1054640014FA02F2416B21EA0301114341631BE088
:10547400BCF10C0F4FEA8C020BD86244233A1F2371
:10548400934014FA02F2016B21EA03011143016310
:105494000AE06244413A1F23934014FA02F2C16ABB
:1054A40021EA03011143C16230BDC04619B18368CA
:1054B40043F4801302E0836823F48013836070470D
:1054C400C06C80B27047C046014B18687047C04634
:1054D4004C24014019B1436843F4806302E04368FB
:1054E40023F480634360704719B1436843F48053E5
:1054F40002E0436823F4805343607047836823F4D5
:10550400E04319438160704719B1836843F4004351
:1055140002E0836823F400438360704719B1836811
:1055240043F4021302E0836823F402138360704798
:105534008068400D00F001007047C046092930B56D
:105544008C4615461C464FEA41020BD962441E3A6A
:105554000723934014FA02F2C16821EA03011143BC
:10556400C16009E062440723934014FA02F201691E
:1055740021EA030111430161836B1F2103F44012EB
:105584006FEA12522A440332D2B202EB82029140F1
:105594000CFA02F223EA01031343836330BDC046CD
:1055A400836B013923F4401343EA01538363704747
:1055B40082B00A5002B0704782B00190283040583F
:1055C40080B202B07047C046436823F4400323F41A
:1055D4000073194341607047416282627047C0465C
:1055E400436823F01F0319434160704720B1054A03
:1055F400936843F4000303E0024A936823F400032E
:105604009360704700240140036819420CBF0020D6
:10561400012070476FEA0101016070474268036826
:1056240013EA112301D1002004E0CBB213420CBFD2
:10563400002001207047C0466FEA112101607047C5
:1056440000B5144B83B0984201900FD003F5A053DA
:10565400984213D0A3F5C053984219D14FF4007067
:10566400012100F08DFF4FF400700EE04FF48060D4
:10567400012100F085FF4FF4806006E04FF4004004
:10568400012100F07DFF4FF40040002100F078FF7D
:1056940003B000BD00280140044A136803F0380336
:1056A40013601368184310607047C046002002401E
:1056B400044A136823F00803136013681843106046
:1056C4007047C04600200240044A136823F01003C8
:1056D40013601368184310607047C04600200240EE
:1056E400034B044A5A6002F188325A607047C0463C
:1056F4000020024023016745024A136943F08003F6
:105704001361704700200240014BD869800870473C
:1057140000200240014B186A7047C0460020024036
:10572400024BD869400800F0010070470020024095
:10573400024B1868400900F0010070470020024045
:1057440021B1054A136940EA030303E0024A1369DD
:1057540023EA00031361704700200240012804D1AA
:10576400054BDB6903F0010005E0034BDB681842DD
:105774000CBF00200120704700200240014BD8607C
:105784007047C04600200240094AD36813F0010F55
:1057940001D001200BE0D36813F0040F01D00220E4
:1057A40005E0D36813F0100F14BF032004207047E2
:1057B4000020024010B5234A82B0D368014613F09A
:1057C400010F01D001202AE0D36813F0040F01D0A7
:1057D400022024E0D36813F0100F14BF0320042028
:1057E4001DE00194CDF804C002E0019B013B01934C
:1057F400019B002BF9D1D36813F0010F01D00120D4
:105804000BE0D36813F0040F01D0022005E0D36845
:1058140013F0100F14BF03200420013903E0094AD8
:1058240000244FF0FF0C0B1E18BF0123012814BFE6
:10583400002303F00103002BD3D1002908BF052066
:1058440002B010BD00200240F0B5134B134C81B0E0
:10585400A36003F188330546A3600F200E46174664
:10586400FFF7A8FF042815D123690D4A43F010035C
:10587400236145F0F80346EA030347EA0303538030
:105884000F20FFF797FF01281FBF226941F6EF732E
:105894001340236101B0F0BD23016745002002409D
:1058A40000F8FF1F30B5054681B040F6FF70FFF7E2
:1058B40081FF04283CD11F4C1F4B00F57E60A36080
:1058C40003F18833A36023691B3043F02003236171
:1058D400236943F040032361FFF76CFF042820D1C0
:1058E400236941F6DF7203EA02022261236943F06D
:1058F400100323611DB1114B4FF0000202E00F4B66
:105904004FF0A5021A8040F6FF70FFF753FF0128FD
:105914000ED0084941F6EF730A6902EA03030B61EA
:1059240006E001281FBF226941F6DF73134023619B
:1059340001B030BD002002402301674500F8FF1F7D
:1059440010B504460F20FFF735FF042850D1294A2B
:10595400294B6FEA0404936003F18833936013695D
:10596400E1B243F01003FF29136104D0234B0F204D
:105974001981FFF71FFF04F47F431A0AB2F1FF03F2
:1059840018BF0123042814BF002303F0010323B12B
:105994001A4B0F205A81FFF70DFF04F47F031A0CF2
:1059A400B2F1FF0318BF0123042814BF002303F03E
:1059B400010323B1114B0F209A81FFF7FBFE220E46
:1059C400B2F1FF0318BF0123042814BF002303F01E
:1059D400010323B1094B0F20DA81FFF7EBFE012805
:1059E4001FBF044941F6EF730A69134018BF0B61E6
:1059F40010BDC046002002402301674500F8FF1F88
:105A040070B506460F200D46FFF7D4FE042814D1C6
:105A14000A4C0B4B0F20A36003F18833A360236966
:105A240043F0100323613580FFF7C4FE01281FBF34
:105A3400226941F6EF731340236170BD00200240D8
:105A44002301674570B506460F200D46FFF7B2FEE9
:105A540004280FD1084C0F20236943F0010323616C
:105A64003580FFF7A7FE01281FBF226941F6FE73A8
:105A74001340236170BDC0460020024070B5064645
:105A84000F200D46FFF796FE042817D10C4C0F206B
:105A9400236943F001032361ABB23380FFF78AFE2D
:105AA400042804D12B0C73800F20FFF783FE0128F8
:105AB4001FBF226941F6FE731340236170BDC046C7
:105AC4000020024010B540F6FF70FFF773FE042873
:105AD4002CD1174C174B00F57E60A36003F188337B
:105AE400A36023691B3043F020032361236943F03F
:105AF40040032361FFF75EFE042810D1226941F6BA
:105B0400DF7302EA0303236123694FF0A50243F024
:105B140010032361084B0F201A80FFF74BFE012866
:105B24001FBF226941F6EF731340236110BDC046C5
:105B3400002002402301674500F8FF1F10B540F61E
:105B4400FF70FFF737FE042813D10A4C236903437F
:105B54002361236900F57E6043F0400323611B3019
:105B6400FFF728FE01281FBF226941F6FB7313408B
:105B7400236110BD0020024030B5054681B040F6D7
:105B8400FF70FFF717FE042815D10C4C00F57E605A
:105B940023691B3043F0020323616561236943F0E9
:105BA40040032361FFF706FE01281FBF226941F667
:105BB400FD731340236101B030BDC0460020024094
:105BC400F0B5CD780E8815F0100F18BF8B7805F05E
:105BD4000F0718BF1F4316F0FF0F83B01ED00468D1
:105BE4000021012212FA01F303EA060C9C4511D1AB
:105BF4008A000F23934017FA02F224EA03041443A1
:105C0400282D019308BFC0F814C003D0482D08BF45
:105C1400C0F810C001310829E3D10460FF2E20D957
:105C240044680021012201F1080312FA03F303EA94
:105C3400060C9C4511D18A000F23934017FA02F2F7
:105C440024EA03041443282D019308BFC0F814C0A8
:105C540003D0482D08BFC0F810C001310829E1D194
:105C6400446003B0F0BDC0464FF0FF33038002230D
:105C740083700423C3707047836819420CBF0020EB
:105C840001207047806880B27047C046C3681942DB
:105C94000CBF002001207047C06880B27047C04626
:105CA40001617047416170470AB1016100E04161DF
:105CB4007047C046C160704741F48033836181619D
:105CC4008361836983697047DFF818C04FF6807376
:105CD400DCF8002041EA001102EA03031943CCF87E
:105CE4000010704700000140014B18607047C04627
:105CF4001C00204230B500F4401304040D4614493E
:105D0400240CB3F5401FD1F804C006D14B682CF025
:105D1400706223F070634B6010E010F4801F05D0B4
:105D240000F47022120C0323934003E0430D1B0183
:105D340014FA03F32CEA030343F0706225B1430D14
:105D44001B0114FA03F31A43014B5A6030BDC046D9
:105D54000000014010B501F00304A4000F23A34088
:105D6400A040DFF820C0890802315CF8212022EA33
:105D740003024CF821205CF8213018434CF8210030
:105D840010BDC0460000014000B50120012181B0D2
:105D940000F0F6FB0120002100F0F2FB01B000BD91
:105DA40000B5274B83B0984201902BD00CD8A3F5B3
:105DB400006398421AD003F5806398421CD0A3F57F
:105DC400006398423AD10BE01E4B984226D003F56B
:105DD4008063984228D0A3F5006398422ED117E03F
:105DE4000420012100F0CCFB042024E00820012140
:105DF40000F0C6FB08201EE01020012100F0C0FBCB
:105E0400102018E02020012100F0BAFB202012E02D
:105E14004020012100F0B4FB40200CE0802001214F
:105E240000F0AEFB802006E04FF48070012100F00A
:105E3400A7FB4FF48070002100F0A2FB03B000BD6B
:105E440000140140001C01400B4B4FF0FF316FF078
:105E54007042C3F880101846C3F88420C3F8801138
:105E6400C3F884210021002202F1C00301320F2A69
:105E740040F82310F8D1704700E100E0094A4FF0E0
:105E840020630949536000239360D1601361536117
:105E94009361D36113625362013B9362D3621363D0
:105EA4007047C04600ED00E00000FA0540F0BE6017
:105EB400024B40F42020D8607047C04600ED00E05B
:105EC40030B5C37805785BB31A4B4178DA681A4C5D
:105ED4006FEA020202F4E062120AC2F1040399407A
:105EE4000F23D340827805F0030013400B43C00016
:105EF4001B01FF22824083404FEA950C0CF1C00C39
:105F040054F82C10134021EA02010B4344F82C30BE
:105F140005F01F0201239340690944F8213008E089
:105F240005F01F02012393406909034A203142F816
:105F3400213030BD00ED00E000E100E000230370FB
:105F440043708370C3707047034B04485B6803EA73
:105F54000000000B7047C04600ED00E000F03F0079
:105F640000F01F0301229A404009054B403053F8CA
:105F740020001040904214BF002001207047C0460A
:105F840000E100E0014B18607047C04600EF00E0FC
:105F94004109012300F01F008340024A603142F8A6
:105FA4002130704700E100E0024B58688005800D05
:105FB4007047C04600ED00E000F01F0301229A4044
:105FC4004009054B803053F820001040904214BF24
:105FD400002001207047C04600E100E0014B186832
:105FE4007047C04600ED00E021F0604121F07F01E0
:105FF400014B01439960704700ED00E0014A024BF8
:10600400DA6070470400FA0500ED00E0014A024B33
:10601400DA6070470100FA0500ED00E021B1054A9D
:10602400136940EA030303E0024A136923EA000305
:106034001361704700ED00E000F01F00012313FA24
:1060440000F021B1054A536A40EA030303E0034A1E
:10605400536A23EA000353627047C04600ED00E030
:1060640010B5144CE3686FEA030303F4E0631B0AFE
:10607400C3F1040C01FA0CF14FF0FF0C2CFA03F3FA
:106084001A400A4300F0C001400900F018000CFA5D
:1060940000FC120182408909063154F8213023EAB8
:1060A4000C0344F8213054F821301A4344F82120D9
:1060B40010BDC04600ED00E0800A00F00F0001238F
:1060C4008340044A506A03EA0000984214BF002047
:1060D4000120704700ED00E000F01F000123834021
:1060E400024A51680B4353607047C04600ED00E01C
:1060F40000F01F00013801238340024A51680B431A
:106104005360704700ED00E0800B00F00F000123A6
:106114008340044A506A03EA0000984214BF0020F6
:106124000120704700ED00E0830C13F0030302D15B
:106134000D4BD86A17E0012B13D103F1604303F52B
:106144006C43FE33020D013302F00302996AD3005B
:1061540031FA03F0022A14BF00F00F0000F0FF0030
:1061640001E0014B186B704700ED00E010F4800F64
:106174000BBF024B014B586B986B704700ED00E06E
:1061840000B581B000F0C4FC01B000BD00B5000151
:1061940081B000F0BAFC01B000BDC04600B581B0CA
:1061A40000F0B1FC01B000BD00B581B000F0A9FC65
:1061B40001B000BD00B581B000F0A1FC01B000BD8C
:1061C40000B581B000F099FC01B000BD014B18602E
:1061D4007047C04620000E42014B18607047C0460D
:1061E40010000E42034A136823F0E00318431060C2
:1061F4007047C04600700040014B18607047C046AD
:10620400A0000E42034B5B6818420CBF0020012023
:106214007047C04600700040024A136843EA800396
:1062240013607047007000400B4A00B5136881B0DA
:1062340043F004031360136843F00203136002F194
:10624400204202F5FA421032136843F0040313604B
:1062540000F02EFC01B000BD007000400C4A00B5F7
:10626400136881B023F003031843106002F1204245
:1062740002F5FA4210321368012943F00403136053
:1062840002D100F015FC01E000F014FC01B000BDE7
:106294000070004010B54FF080542046012100F0FA
:1062A4007DF92046002100F079F910BD0D4A1368EC
:1062B40043F00103136051680B4B01EA030353607D
:1062C400136823F0847323F480331360136823F476
:1062D40080231360536823F4FE0353600023936008
:1062E4007047C046001002400000FFF80B4AB0F5AA
:1062F400803F136823F480331360136823F48023EE
:10630400136003D0B0F5802F07D102E01368034374
:1063140002E0136843F4A0231360704700100240A6
:1063240082B00023094901930A68019B013312F4E6
:10633400003F019303D1019BB3F5A06FF4D1034B4C
:106344001868400C00F0010002B0704700100240D1
:10635400034A136823F0F80343EAC0031360704749
:1063640000100240014B18607047C04600004242D2
:10637400034A536823F47C1318430843506070475E
:1063840000100240014B18607047C0466000424252
:10639400034A536823F00303184350607047C04610
:1063A40000100240024B586800F00C007047C046D1
:1063B40000100240034A536823F0F003184350606E
:1063C4007047C04600100240034A536823F4E06358
:1063D400184350607047C04600100240034A536897
:1063E40023F4605343EAC003536070470010024033
:1063F40021B1054A137840EA030303E0024A137803
:1064040023EA00031370704709100240014B18601F
:106414007047C046D8004242034A536823F44043BD
:10642400184350607047C04600100240064A0023DB
:1064340001281370137008BF107003D0042801D111
:10644400052313707047C04620100240014B1860AA
:106454007047C04680044242024A136A18431062DD
:106464007047C04600100240014B18607047C04698
:106474003C044242294984464B6803F00C03042B34
:1064840021D0082B1FD14B6803F470139B0C9A1C6A
:106494004B6813F4803F08BFC2EB421306D04B682D
:1064A40013F4003F4FEA421306D09B1AC3EB831345
:1064B40002EBC3031B0207E09B1AC3EB831302EB3B
:1064C400C3035B0200E0164B1448CCF80030436869
:1064D400144A03F0F0031B09D35CDCF80010D94024
:1064E400CCF80410436803F4E0631B0AD35C31FA6C
:1064F40003F3CCF80830436803F46053DB0AD35C3D
:10650400094AD940CCF80C10436803F440439B0B70
:10651400D35CB1FBF3F1CCF81010704700100240CB
:1065240000127A00786B0008886B000821B1054AD4
:10653400536940EA030303E0024A536923EA000370
:10654400536170470010024021B1054A936940EA43
:10655400030303E0024A936923EA0003936170474B
:106564000010024021B1054AD36940EA030303E065
:10657400024AD36923EA0003D36170470010024042
:1065840021B1054AD36840EA030303E0024AD36811
:1065940023EA0003D36070470010024021B1054A8A
:1065A400136940EA030303E0024A136923EA000380
:1065B4001361704700100240014B18607047C046D9
:1065C40040044242014B18607047C0464C004242AE
:1065D400014B18707047C046071002404309012B55
:1065E40008D103F1804303F5023303F5FF63073356
:1065F4001B680CE0022B08D103F1804303F502333E
:1066040003F5FF6306331B6A01E0044B5B6A00F089
:106614001F0033FA00F000F0010070470010024040
:10662400024A536A43F08073536270470010024079
:10663400034B9B6818420CBF002001207047C046E2
:1066440000100240014B18707047C0460A10024007
:10665400042803D1044A1368034303E0024A13687D
:1066640023F004031360704710E000E0014B58600E
:106674007047C04610E000E0012803D1084A1368BF
:10668400034306E010F1020F05D1054A136823F015
:106694000103136002E0024B00229A607047C04677
:1066A40010E000E020B1054A136843F0020303E060
:1066B400024A136823F002031360704710E000E0FD
:1066C400014B98687047C04610E000E0C308022BF5
:1066D400024606D103F1604303F560430E331868A4
:1066E40001E0034BD868D04000F001007047C04679
:1066F40010E000E04FF4165303604FF00003838072
:10670400C38003814FF00C0343814FF00003838166
:106714007047C046B1F800C04B88028A43EA0C03B4
:10672400B1F804C0C98822F4706243EA0C0312046D
:106734000B43120C9BB21343038270474FF00003C8
:10674400038043808380C3807047C04621B183891E
:106754009BB243F4005304E0838923F400531B04E5
:106764001B0C83817047C046CBB24FEA531C01F027
:106774001F01012382B013FA01F1BCF1010F019052
:1067840001D10C3005E0BCF1020F01D1103000E062
:10679400143012B103680B4302E0036823EA0103D7
:1067A400036002B07047C04622B1838A9BB241EABB
:1067B400030303E0838A9BB223EA010383827047C5
:1067C400038A23F00F031B041B0C0382038A9BB26E
:1067D4000B4303827047C046838923F400631B0480
:1067E4001B0C838183899BB2194381817047C04606
:1067F40021B183899BB243F0020304E0838923F02F
:1068040002031B041B0C83817047C046038A23F0D8
:1068140020031B041B0C0382038A9BB219430182CD
:106824007047C04621B1038A9BB243F4804304E01D
:10683400038A23F480431B041B0C03827047C04665
:10684400C905C90D818070478088C005C00D704797
:1068540083899BB243F0010383817047038BDBB2CE
:106864000383038B9BB243EA012303837047C0462F
:10687400038B03F47F430383038B9BB20B43038398
:106884007047C04621B1838A9BB243F0200304E0E1
:10689400838A23F020031B041B0C83827047C046A9
:1068A40021B1838A9BB243F0100304E0838A23F06E
:1068B40010031B041B0C83827047C04621B1838ADA
:1068C4009BB243F0080304E0838A23F008031B040B
:1068D4001B0C83827047C046838A23F004031B0485
:1068E4001B0C8382838A9BB2194381827047C04602
:1068F40021B1838A9BB243F0020304E0838A23F02C
:1069040002031B041B0C83827047C0460388194290
:106914000CBF0020012070476FEA010189B2018099
:106924007047C046CBB24FEA531C01F01F0201234B
:1069340013FA02F2BCF1010F08BF838904D0BCF141
:10694400020F0CBF038A838A9BB202EA030C0B0A70
:1069540001229A4003889BB21A420CBF00200120F6
:10696400BCF1000F0CBF002000F001007047C046CE
:10697400090A01238B406FEA03039BB2038070472B
:10698400038ACA8823F440531B041B0C1343038259
:10699400828970B50B890E46898822F4B0520B4364
:1069A400718922F00C020B431204120C9BB21343A4
:1069B4008381838AB28923F440731B041B0C88B03F
:1069C4001343054683820190044603A8FFF752FD52
:1069D400104B11489D420CBF069B059B03EB8301A2
:1069E400336801EB81019B00B1FBF3F1A1FB0023B0
:1069F40064224FEA531C0CFB121212013232A2FB26
:106A040000235B0903F00F0343EA0C139BB22B81B1
:106A140008B070BD003801401F85EB5100B5224B12
:106A240083B0984201902BD008D8A3F50063984214
:106A340016D003F58063984234D119E01B4B984279
:106A440026D003F5684398422CD101214FF48040AD
:106A5400FFF796FD4FF480400021FFF791FD21E000
:106A64004FF400300121FFF799FD4FF4003016E098
:106A74004FF480200121FFF791FD4FF480200EE0B8
:106A84004FF400200121FFF789FD4FF4002006E0B8
:106A94004FF480100121FFF781FD4FF48010002195
:106AA400FFF77CFD03B000BD004C004000500040E7
:106AB40030BF704720BF704740BF7047BFF36F8F30
:106AC4007047BFF34F8F7047BFF35F8F704701DF8D
:106AD4007047EFF31480704780F31488BFF36F8F0F
:106AE4007047EFF30980704780F309887047EFF32C
:106AF4000880704780F30888704772B6704762B6A2
:106B0400704771B6704761B6704780F3118870475B
:106B1400EFF31280704740BA704700BA7047000024
:106B24002DF0070168468D4601B500220C49DFF8B7
:106B340034C00D4802E083588B50043201EB020349
:106B44006345F8D3094B0A49002201E043F8042BBA
:106B54008B42FBD3FCF7ECFABDE801408546704755
:106B640000000020D800002004700008D800002095
:106B74005C0E002000000000010203040102030473
:106B840006070809020406085374617274696E6783
:106B94002050726F6772616D206279207475726E15
:106BA400696E67206F6E20504F574552204C454404
:106BB400210D0A004261747465727920566F6C74F9
:106BC4006167653A2000652D31205B566F6C7473E4
:106BD4005D0A005043553A0028627073290A005A2E
:106BE40049473A0044584C3A00202A20092A2054A4
:106BF40075726E206F6E204C454473210D0A00207F
:106C04002A20092A205475726E206F6666204C452E
:106C14004473210D0A007B002C2A20002A2C20001A
:106C2400202841582D31322900202841582D31384F
:106C34002900202841582D53312900202841582D5E
:106C4400533230290020284A482D46505329002029
:106C5400284D582D323829007D200A000A44584C0A
:106C640020444556494345533A000A7E7E7E7E7E43
:106C74007E7E7E7E7E7E7E7E7E7E7E7E7E7E7E7E30
:106C84007E7E7E7E7E7E7E7E7E7E7E7E7E7E7E7E20
:106C94007E7E7E0A000A506C6179696E6720536FAC
:106CA4006D65206D757369630A000A2849525F4C4B
:106CB4002C2049525F522C20444D53293A09280074
:106CC4000A55502055502055502069732070726524
:106CD40073736564210A000A444F574E20444F578A
:106CE4004E20444F574E206973207072657373654C
:106CF40064210A000A4C454654204C454654204C15
:106D04004546542069732070726573736564210A63
:106D1400000A52494748542052494748542052498E
:106D24004748542069732070726573736564210A3F
:106D3400000A535441525420535441525420535442
:106D44004152542069732070726573736564210A1B
:106D5400000A4D4943204D4943204D4943204D49A4
:106D640043204D4943204D494D4943204D4943203B
:106D74004D494D4943204D4943204D494D494320F8
:106D84004D4943204D494D4943204D4943204D49E8
:106D94004D4943204D4943204D494D4943204D49D8
:106DA40043204D494D4943204D4943204D494D49C8
:106DB40043204D4943204D494D4943204D494320EB
:106DC4004D4969732070726573736564210A000A02
:106DD4005761697420666F7220636F6D6D616E64B4
:106DE4000A000A44584C5F54584641494C3A2046DC
:106DF40061696C6564207472616E736D6974206975
:106E04006E737472756374696F6E207061636B6501
:106E140074210A000A44584C5F52584641494C3A7E
:106E2400204661696C6564206765742073746174BD
:106E34007573207061636B65742066726F6D206476
:106E44006576696365210A000A44584C5F545845C5
:106E540052524F523A20496E636F727265637420C6
:106E6400696E737472756374696F6E207061636B9D
:106E74006574210A000A44584C5F4241445F494EFC
:106E840053543A20496E76616C696420496E737478
:106E940072756374696F6E20627974650A000A44BE
:106EA400584C5F4241445F49443A20494427732087
:106EB4006E6F742073616D6520666F7220696E73E6
:106EC4007472756374696F6E20616E64207374618B
:106ED400747573207061636B6574730A000A445897
:106EE4004C5F525857414954494E473A204E6F77A8
:106EF40020726563656976696E6720737461747561
:106F040073207061636B6574210A000A44584C5FF6
:106F1400525854494D454F55543A2054686572654A
:106F2400206973206E6F20737461747573207061AF
:106F3400636B6574210A000A44584C5F52584348F5
:106F440045434B53554D3A20496E636F72726563E6
:106F54007420737461747573207061636B6574203D
:106F6400636865636B73756D210A000A496E7075F9
:106F74007420766F6C74616765206572726F72211C
:106F84000A000A416E676C65206C696D697420653E
:106F940072726F72210A000A4F76657268656174B5
:106FA400206572726F72210A000A4F7574206F6631
:106FB4002072616E6765206572726F72210A000A21
:106FC400436865636B73756D206572726F72210A15
:106FD400000A4F7665726C6F6164206572726F721D
:106FE400210A000A496E737472756374696F6E20A6
:106FF400636F6465206572726F72210A000000007D
:1070040002000000000801400100000000080140E7
:1070140002000000000801400400000000080140D4
:107024000800000000100140400000000010014072
:107034008000000000100140000100000010014029
:1070440000020000000801400001000000080140A7
:1070540000080000000C014000010000000C014089
:107064000002000000100140000800000010014070
:1070740000040000000801400080000000080140F6
:1070840000400000000C0140080000000010014016
:10709400100000000010014000200000000C01401E
:1070A40000200000000C014000400000000C0140E2
:1070B400008000000010014000400000001001406A
:1070C40000800000000C01400010000040420F004E
:0870D40000E1000000E10000F2
:00000001FF
