:020000040800F2
:10300000000001202D7A00084D34000851340008DA
:1030100055340008593400085D34000800000000F1
:1030200000000000000000000000000065340008FF
:10303000613400080000000069340008753500089C
:103040006D340008713400087534000879340008C4
:103050007D34000881340008853400088934000874
:103060008D340008913400089534000800000000F9
:103070000000000000000000000000000000000050
:103080000000000000000000B5340008B93400085A
:10309000BD340008C1340008C5340008C934000834
:1030A000CD340008D1340008D5340008D9340008E4
:1030B000DD340008E1340008E5340008E934000894
:1030C000ED340008F1340008F5340008F934000844
:1030D000FD34000869350008013500085D35000839
:1030E00005350008093500080D35000811350008C0
:1030F00015350008193500081D3500082135000870
:1031000025350008293500082D350008313500081F
:103110003535000851350008393500083D350008BF
:103120004135000845350008493500084D3500088F
:043130005FF8000044
:10313400FEE7C046F0B581B002F060FDA14800F0A2
:1031440083FC0020012102F0C1F902F06BF99E48D2
:1031540000F07AFC9D4B9E4C186800F03DFC9D48A5
:1031640000F072FC9C4800F06FFC9C4B186800F067
:1031740033FC984800F068FC994800F065FC20682E
:1031840000F02AFC934800F05FFC00F025FDC0B27B
:103194006C2813D100F062FB924800F055FC00202B
:1031A400012102F093F90320012102F08FF901209B
:1031B400012102F08BF90220012114E06F2815D1BE
:1031C40000F04CFB884800F03FFC0020002102F096
:1031D4007DF90320002102F079F90120002102F099
:1031E40075F90220002102F071F9E6E06D2866D13C
:1031F400206801F013F800270125EEB203213046C0
:1032040000F0BCFFABB280B298424DD1774800F0D9
:103214001BFC284600F0E0FB754800F015FC00217B
:10322400304600F05DFF044600F004FD10F0020F8C
:1032340002D100F00FFC0BE06E4800F005FC2421E5
:10324400304600F04DFF00F0C7FB6B4800F0FCFB7C
:10325400204600F0C1FB0C2C08BF684814D0122C87
:1032640008BF674810D00D2C08BF66480CD0D42C7A
:1032740008BF654808D044F20B339C4208BF63483A
:1032840002D01D2C02D1624800F0DEFB7B1C5848A2
:10329400DFB200F0D9FB0221304600F06FFF00F0EE
:1032A4009BFB5C4800F0D0FB0135FA2DA5D15A48B0
:1032B40000F0CAFB384600F08FFB58487BE06228D8
:1032C40005D1574800F0C0FB9620C8210AE07328B6
:1032D4000BD11A2001F0CCFAC820962102F00CF987
:1032E4009620962102F008F967E0772801D1192089
:1032F40002E0612803D1052001F0BAFA5DE06928F3
:1033040026D1484800F0A0FB002002F0ADF800F000
:1033140029FB374800F098FB052002F0A5F800F0DF
:1033240021FB334800F090FB042002F09DF800F0EC
:1033340019FB3D4800F088FB4FF4967045F6CE61CA
:10334400012202F0F7F84FF4FA6002F01BF934E0BE
:10335400002002F0A9F808B134482CE0012002F062
:10336400A3F808B1324826E0022002F09DF808B123
:10337400304820E0032002F097F808B12E481AE004
:10338400042002F091F818B12C4800F05DFB0AE02B
:10339400052002F089F868B1294800F055FB0120A6
:1033A400012102F093F8C82044F20671012202F0D0
:1033B400C1F802E0234800F047FB4FF47A7002F0B2
:1033C400E1F8C2E6907C0008BC7C0008D400002030
:1033D400CC000020C17C0008C87C0008D00000207C
:1033E400CD7C0008D27C0008E87C0008FF7C000843
:1033F400067D0008017D0008057D0008097D0008A0
:10340400127D00081B7D0008247D00082E7D000825
:10341400387D0008417D0008457D0008537D000883
:103424007E7D0008937D0008C57C0008A97D000806
:10343400C07D0008DD7D0008FA7D00081A7E0008C2
:103444003A7E0008B87E00087047C046FEE7C046D2
:10345400FEE7C046FEE7C046FEE7C0467047C046EA
:103464007047C0467047C0467047C0467047C04664
:103474007047C0467047C0467047C0467047C04654
:103484007047C0467047C0467047C0467047C04644
:103494007047C0467047C0467047C0467047C04634
:1034A4007047C0467047C0467047C0467047C04624
:1034B4007047C0467047C0467047C0467047C04614
:1034C4007047C0467047C0467047C0467047C04604
:1034D4007047C0467047C0467047C0467047C046F4
:1034E4007047C0467047C0467047C0467047C046E4
:1034F4007047C0467047C0467047C0467047C046D4
:103504007047C0467047C0467047C0467047C046C3
:103514007047C0467047C0467047C0467047C046B3
:103524007047C0467047C0467047C0467047C046A3
:103534007047C0467047C0467047C0467047C04693
:103544007047C0467047C0467047C04600B581B05A
:1035540002F07CFD01B000BD00B581B002F02EFE8A
:1035640001B000BD00B581B002F042FC01B000BD65
:1035740000B581B002F072F801B000BD034B1A88A7
:10358400034B1888801A18BF01207047E2080020F6
:10359400E0080020DFF820C00848BCF800200388B9
:1035A40005499342F9D00B88054A9BB2D05C0B883D
:1035B40001339BB20B807047E2080020E008002032
:1035C400E0040020F0B5002883B0044604DAC0F11A
:1035D40000042D2002F0F8FD0027134E019794FB00
:1035E400F6F3DDB23DB105F13000C0B202F0ECFDFE
:1035F4000121019104E0019B13B1302002F0E4FDAC
:103604000A4906FB154486FB0123F117C1EBA30607
:103614007B1CDFB2092FE2D194FBF6F03030C0B24C
:1036240002F0D2FD03B0F0BD00CA9A3B676666663D
:10363400F0B5002883B0054602DB0021019104E0C7
:10364400C0F1000301221DB201920027009742F24B
:103654001076009995FBF6F39CB281F00103002CDF
:103664000CBF002303F0010363B1019A12B12D20B2
:1036740002F0AAFD04F13000C0B202F0A5FD01235E
:1036840000930CE0009919B104F13000C0B204E0D9
:10369400042F01D0202000E0302002F095FD7B1C97
:1036A400DFB2052F08D006FB145304491DB2A6FB54
:1036B4000123DB089EB2CCE703B0F0BDCDCCCCCC6B
:1036C400F0B5002883B0054602DB0021019104E037
:1036D400C0F1000301225DB2019200230093002790
:1036E400642695FBF6F39CB287F00103002C0CBF13
:1036F400002303F001035BB1019911B12D2002F005
:1037040063FD04F13000C0B202F05EFD012707E062
:103714001FB104F13000C0B200E0202002F054FDDB
:10372400009A531CDBB2032B009308D006FB1453FE
:1037340004495DB2A6FB0123DB089EB2D1E703B0C6
:10374400F0BDC046CDCCCCCCF0B5002683B0124C35
:1037540007460196B7FBF4F53DB105F13000C0B260
:1037640002F032FD0121019108E0019B1BB9032EF7
:1037740001D8202000E0302002F026FD731CDEB2C8
:103784000A2E06D0054904FB1577A4FB0123DC08A7
:10379400E0E703B0F0BDC04600CA9A3BCDCCCCCC28
:1037A400F0B5002683B00746019642F21074B7FBC9
:1037B400F4F53DB105F13000C0B202F005FD012180
:1037C400019108E0019B1BB9042E01D0202000E0E8
:1037D400302002F0F9FC731CDEB2052E08D004FB85
:1037E400157304499FB2A4FB0123DB089CB2DEE7F6
:1037F40003B0F0BDCDCCCCCC164A30B5A0FB02232F
:103804005C09E4B2054604F1300081B0C0B202F0B4
:10381400DBFCC4EB446304EB8303C4EBC30405EB9C
:1038240084050D4AEDB2A5FB0223DC08E4B204F1E1
:103834003000C0B202F0C8FCC4EB44733035C4EBB2
:10384400830405EB4405EDB2284602F0BDFC01B04B
:1038540030BDC0461F85EB51CDCCCCCC0A2810B569
:10386400044618BF004603D10D2002F0ADFC0A2027
:1038740002F0AAFC204610BD00B581B0FFF7EEFFB0
:1038840001B000BD30B5054681B0002402E001342A
:10389400FFF7E4FF285D0028F9D1204601B030BDD0
:1038A40000B5302383B08DF8033078238DF80430CD
:1038B40000238DF8073003093033392B8DF8053098
:1038C40002D907338DF8053000F00F0303F13000FF
:1038D40039288DF8060002D9C31D8DF806300DF184
:1038E4000300FFF7CFFF03B000BDC04600B530238F
:1038F40083B08DF8013078238DF8023000238DF8E1
:103904000730030B3033392B8DF8033002D90733DA
:103914008DF80330030A03F00F033033392B8DF88D
:10392400043002D907338DF80430030903F00F0380
:103934003033392B8DF8053002D907338DF8053033
:1039440000F00F0303F1300039288DF8060002D986
:10395400C31D8DF806300DF10100FFF793FF03B08E
:1039640000BDC04600B585B004A92B23184ADFF872
:1039740064E001F80C3D0DF10E0CB0FBF2F302FB18
:10398400130003F00F03303301F8013FA2FB0E23B1
:10399400DA086145F1D100238DF80F3000210DF1D3
:1039A40005009DF80430302B08D10246137802F844
:1039B400013C1BB1013204AB9A42F7D14B1CD9B282
:1039C4000B29EED101A8FFF75DFF05B000BDC0468D
:1039D40000CA9A3BCDCCCCCC00B5194A85B0DFF8EF
:1039E40064C000210DF1050EB0FBF2F302FB1300DD
:1039F40003F00F0330330EF80130A2FB0C23013126
:103A0400DA080A29F0D100238DF80F3000210DF1D6
:103A140006009DF80530302B08D10246137802F8D1
:103A2400013C1BB1013204AB9A42F7D14B1CD9B211
:103A34000A29EED10DF10500FFF724FF05B000BD02
:103A440000CA9A3BCDCCCCCC00B581B0FFF71AFFAD
:103A540001B000BD10F0040F10B5044602D01748A1
:103A6400FFF710FF14F0080F02D01548FFF70AFF04
:103A740014F0100F02D01348FFF704FF14F0200FC6
:103A840002D01148FFF7FEFE14F0400F02D00F4899
:103A9400FFF7F8FE14F4007F02D00D48FFF7F2FEA2
:103AA40014F4806F02D00B48FFF7ECFE14F4805F2F
:103AB40002D00948FFF7E6FE10BDC046CB7E0008E1
:103AC400FD7E0008317F00085E7F0008877F0008C4
:103AD400C67F0008F47F00082080000800B501209C
:103AE40081B000F0C5F8012802D11A48FFF7CAFED8
:103AF400022000F0BDF8012802D11748FFF7C2FEEA
:103B0400042000F0B5F8012802D11448FFF7BAFEEA
:103B1400082000F0ADF8012802D11148FFF7B2FEE9
:103B2400102000F0A5F8012802D10E48FFF7AAFEE4
:103B3400202000F09DF8012802D10B48FFF7A2FED7
:103B4400402000F095F8012802D10848FFF79AFEBA
:103B540001B000BD548000086B800008808000081C
:103B640092800008A8800008BA800008CC80000871
:103B740070B50546002480260A2002F03DFB02F0C1
:103B840053F818B902F098F80028F8D002F094F825
:103B940010B9BCB1285516E002F050F8D0F1010379
:103BA40038BF00230A2808BF43F00103013E1BB1BC
:103BB40044B100232B5506E0631C2855DCB2002ECB
:103BC400DAD100E00025284670BDC04600B581B0BA
:103BD400FFF7CEFF01B000BD00B50A2081B002F0AE
:103BE4000BFB02F021F818B902F066F80028F8D0AF
:103BF40002F062F808B9FF2004E002F01FF80D2873
:103C040008BF0A2001B000BD00B581B0FFF7E4FF92
:103C140001B000BD00B581B002F076F901B000BD7D
:103C240000B581B002F0E2F9003818BF012001B0FC
:103C340000BDC046014B188880B2704700000020C8
:103C4400014B98707047C046E4080020014B18717E
:103C54007047C046E4080020014B1B185971704797
:103C6400E4080020014BD8707047C046E4080020E7
:103C7400064B1B8813F0080F01D0802005E0044B8D
:103C84001B7918420CBF002001207047000000205F
:103C940084090020044B1B8813F0080F01D0002076
:103CA40001E0024BD878704700000020840900200E
:103CB400054B1B8813F0080F01D0002002E0034BD2
:103CC4001B1858797047C046000000208409002062
:103CD40000EB012080B27047C0B27047000A704701
:103CE4000C4AD1784B1EDBB24E2B0AD81046002367
:103CF4000331002202E0C2540133DBB29942FADA02
:103D040006E00023137053709370D37013715371D2
:103D14007047C0468409002030B55A4981B00B78F9
:103D2400002B00F0AD8001230B70574B574A9B7852
:103D3400FE2B00F0A080138813F0010F05D0544B24
:103D440000221A70534B06221A70514D514C2B7895
:103D540021785148C91AC018C9B202F011F82B7859
:103D6400C0182378C0B28342287003D902F036F811
:103D7400012808D0464B00201A78474902F1FF3C3D
:103D8400A2F1020E19E02B78404A13B94FF4806374
:103D940001E04FF40063138035E00B5CFF2B04D18A
:103DA40001EB00035B78FF2B09D0704503D111F8B8
:103DB4000C30FF2B03D0431CD8B26045EDDB88B137
:103DC4000021C0EB020CDFF8D0E006E00EEB0103AB
:103DD4001B5C0EF801304B1CD9B26145F6DB2C4B51
:103DE400121A1A702A4D2B4C95F800C0237863459B
:103DF40026D8254B28489A7883789A4207D0234BB3
:103E04004FF048021A801F4B00221A7038E0C37822
:103E14000433D9B28C4521700CD2CCEB010160443F
:103E2400C9B201F0ADFF2B78C0182378C0B2834229
:103E3400287005D8184B0021D87800229C460BE046
:103E4400124B4FF400721A801AE00CEB01039B78BA
:103E54001344DAB24B1CD9B28842F6DA0E4B6FEA3D
:103E640002021B18DB78D2B293420649074A18BFF4
:103E740041F2080301D14FF00203138000230B70B9
:103E840001B030BDD6090020E40800200000002065
:103E9400D5090020D40900208409002030B5DFF8BA
:103EA400ECC081B09CF80030012B6CD03848012361
:103EB4004FF000028CF800300280364A0024D37898
:103EC400A22B04D903889BB243F0100312E01179AA
:103ED4004A1ED2B2B1F1830318BF0123052A94BF4D
:103EE400002303F001034BB10E2907D003889BB2D2
:103EF40043F0200303808CF8004044E0254A4FF04F
:103F0400FF331370537092F803C00021002006E0C1
:103F140002EB01039B780344D8B24B1CD9B28C4505
:103F2400F6DA1C4B6FEA00026344DA70184B1B8804
:103F340023F4647323F00703DB04DB0C0BB101F0FF
:103F440009FF144DEC7828460434E4B2214601F00C
:103F540095FF844209D00E4A13889BB243F00403B0
:103F640013800A4B00221A700DE02B79022B03D127
:103F7400A8790630C0B200E0062001F075FF044BBA
:103F84004FF001021A8001B030BDC046D6090020AE
:103F940000000020E408002010B5FFF77FFF144B59
:103FA4001B8813F0010F21D0124AD1784B1EDBB2CB
:103FB4004E2B0AD8104600230331002202E0C254DB
:103FC4000133DBB29942FADA06E00023137053702E
:103FD4009370D37013715371054CFFF79DFE32201B
:103FE40001F0B0FA238813F4007FF6D110BDC04667
:103FF4000000002084090020F0B51646264A81B04E
:104004000F461D461378002BFCD1002841D0234ACB
:10401400023B93707B3B13711E23537104239371F2
:1040240000214FF0000C4FF0000E144624E0ACF1D8
:1040340003037A5CDBB223445A71ACF1020316F831
:104044000E20DBB223445A7136F80E300CF1FF32E5
:10405400D2B222441B0A537115F80E3004EB0C0241
:10406400537135F80E300CF10102D2B222441B0A0E
:10407400013153710EF1020E0CF1050381425FFA16
:1040840083FCD4DB00EB8003044A0433D370FFF7D2
:1040940083FF01B0F0BDC046D6090020E40800202B
:1040A40000B594460B4A81B01378002BFCD10A4A20
:1040B400032313714FEA1C23D37105239070D3702B
:1040C400517182F806C0FFF767FF044B188880B26D
:1040D40001B000BDD6090020E40800200000002043
:1040E40000B50F4A81B01378002BFCD10D4A02238E
:1040F400137193710423D37090705171FFF74CFFC7
:10410400094B1B8813F0080F01D0002005E0074B72
:104114009A795B7903EB022398B201B000BDC046E3
:10412400D6090020E40800200000002084090020B3
:1041340000B594460A4A81B01378002BFCD1094A91
:104144000323137104239070D370517182F806C055
:10415400FFF722FF044B188880B201B000BDC046AF
:10416400D6090020E40800200000002000B500214A
:1041740081B00022FFF7DCFF01B000BD00B50D4A9D
:1041840081B01378002BFCD10B4A02231371012355
:1041940093710423D37090705171FFF7FDFE074BA8
:1041A4001B8813F0080F01D0002001E0044B58795C
:1041B40001B000BDD6090020E40800200000002062
:1041C4008409002000B50E4A81B01378002BFCD17D
:1041D4000C4A012313710223D3709070FFF7DCFEA5
:1041E400094A1388022B02D1084B187906E0138878
:1041F400B3F5806F0CBF4FF0FF30002001B000BD5D
:10420400D6090020E40800200000002084090020D2
:1042140000B581B001F05CFE01B000BD00B581B015
:1042240001F07CFE38B1054B4FF002021A80044BBA
:1042340000221A70012001B000BDC0460000002019
:10424400D6090020024B00221A70024B18887047CE
:10425400EC090020EA090020014B18787047C04699
:10426400ED090020014B18787047C046EE09002084
:10427400014B18787047C046EF090020014B1878AD
:104284007047C046F0090020014B18787047C046BB
:10429400F1090020024B00221A7000207047C0462A
:1042A400EC090020014B187880387047ED09002094
:1042B400014B187880387047EE090020014B1878BC
:1042C40080387047EF090020014B18788038704718
:1042D400F0090020034B1878034B1B78C01A18BF51
:1042E40001207047D8090020D909002070B53E4B41
:1042F4001B78012B01D1012075E03C4C2378082B5D
:1043040009D83B48C3F10901C018C9B201F0F8FC4F
:104314002378C0182070354B93F800C0BCF1010F0E
:104324002CD90022324D0CF1FF340AE0AB5C05EBD2
:104334000201FF2B04D1944202DD4B78552B03D0AC
:104344000132D0B26045F1D3C0B1604507D1284BEA
:104354001B1813F8013CFF2B01D1431ED8B20146B0
:10436400234C05E0625CC0EB0103E2544B1CD9B260
:104374006145F7D31D4BC0EB0C021A701B4B1B7825
:10438400092B2DD11A4E3378FF2B24D17378552B5A
:1043940021D1B578174BF4781D70174B96F804C0EB
:1043A4001C70164B164A83F800C07379B0791370E9
:1043B400144A63445B191B191070F179124A1B18D3
:1043C400117003F0FF03327AC3F1FF039A4202D162
:1043D400054B01221A70064A00231370034A137016
:1043E400014B1B78184670BDEC090020E909002038
:1043F400E0090020EF090020F0090020ED09002069
:10440400EE090020F1090020F209002030B5394BF3
:1044140081B01B78012B01D1012068E0364C237850
:10442400052B09D83548C3F10601C018C9B201F0FB
:1044340067FC2378C01820702F4B93F800C0BCF1A0
:10444400010F2CD900222D4D0CF1FF340AE0AB5C96
:1044540005EB0201FF2B04D1944202DD4B78552B6E
:1044640003D00132D0B26045F1D3C0B1604507D169
:10447400224B1B1813F8013CFF2B01D1431ED8B269
:1044840001461E4C05E0625CC0EB0103E2544B1C88
:10449400D9B26145F7D3184BC0EB0C021A70164B16
:1044A4001B78062B20D1154A1378FF2B17D153788C
:1044B400552B14D1D37890786FEA0303DBB298427A
:1044C4000DD1537911796FEA0303DBB2994206D116
:1044D4000B4B00EB01221A80064B01221A70074A8B
:1044E40000231370044A1370024B1B78184601B062
:1044F40030BDC046EC090020E9090020DA0900209B
:10450400EA09002000B5C2B283B0000A8DF80600A3
:104514004FF0FF336FEA00008DF802308DF804206D
:1045240055236FEA02028DF8070006210DF10200FF
:104534008DF803308DF8052001F0D0FD062814BF56
:104544000020012003B000BD00B581B001F0CAFC19
:1045540001B000BD00B581B001F010FD48B1064BBB
:1045640000221A70054B4FF000011980044B012002
:104574001A7001B000BDC046EC090020EA09002011
:10458400E9090020034B1878D0F1010038BF00205E
:104594007047C046F4090020044B15221A70044BDE
:1045A400C0B21870034B01221A707047740F0020B8
:1045B4007A0F0020760F0020014B18687047C04620
:1045C4000C0A0020F0B5244C85B02448FFF73CFACF
:1045D400A07D217DE27D637D0090A07C2646019034
:1045E400E07C002502901E48FFF72EFA1FE01D48CC
:1045F400FFF72AFAB6F82221B6F814311A482946E8
:10460400FFF722FA144A05EBC50302EB830303F117
:104614001807002437F8021B14480134FFF714FA72
:10462400122CF7D11248FFF70FFA013502360A4A65
:10463400D37D9D42DBDB0F48FFF706FA064D0024CD
:10464400295D0A480134FFF7FFF9122CF8D1084814
:10465400FFF7FAF905B0F0BD240E0020E68000084B
:10466400008100085C8100086581000885810008DC
:10467400BA7C00088981000800B581B000F0DAFF37
:10468400074B1A78074B03EB4203074AB3F8203170
:1046940012689B1898422CBF0020012001B000BD75
:1046A4007B0F0020240E0020000A0020002870B593
:1046B400044613DD0B4DEB7D98420FDC00F0BAFF8E
:1046C40004EBC40105EB440305EB810106460C39F8
:1046D400B3F82001002200F0B3FC00E000263046CD
:1046E40070BDC046240E0020F0B5154F81B00024E3
:1046F40014493B5D0A5D934218D0012111FA02F37B
:10470400114ADEB2155D1D2128463246FFF710FD21
:10471400022806D00D482946FFF796F94FF0FF30DE
:104724000BE028461C213246FFF702FD05490B5DCC
:104734003B550134122CDBD1002001B0F0BDC04642
:10474400100A0020240E00203E7C000897810008F7
:10475400F0B5430289B003F1006C06900CF5862C89
:104764009CF80F303C4A13759CF814300793D375AA
:104774009CF816104FF4A07393FBF1F353759CF857
:104784001830002193759CF8193093749CF81A30F2
:10479400D3740CEB010393F8213003F00F0353544B
:1047A40001311229F5D167462B48002443E0039DCB
:1047B4006E1C4B88039640F2FF36B34213801CD91B
:1047C400621C06992548FFF73FF9254B224A595D9B
:1047D40004EBC40305EB430322480C3332F81320E3
:1047E40030F81500204B009033F815301F48FFF7C0
:1047F4002BF94FF0FF3003F042E9039B0231023200
:10480400122BD4D197F87E300134DB00A0F8143198
:1048140097F87F104037C900A0F822119CF81620A1
:1048240002FB03F302FB01F25B115211A0F81431F5
:10483400A0F822210230079EB4420BDA631C064A18
:104844000CEB831104EBC40302EB830303F11802A2
:104854000025ADE709B0F0BD240E0020C281000898
:104864003E7C0008D67B0008FA7B0008F88100082B
:10487400F0B5284BC2B28BB01A70FFF769FF264F10
:10488400002626480121845DBD5D11FA04F4E4B2DA
:104894001D2122462846FFF74BFC01361C212846E1
:1048A4002246FFF745FC122EEBD100F0C3FE012691
:1048B4001A4F22E033F8021B01A881520232242A43
:1048C400F8D100F0B7FE01A90122B5F8220100F0E9
:1048D400B7FB00F0AFFEB5F8140108B100F052FECA
:1048E40001340235FB7D9C4206DA04EBC40307EB7A
:1048F400830318330022DDE701363B7D074C9E42DB
:1049040002DC25460024EDE700F094FEA07C0BB009
:10491400F0BDC046790F00203E7C0008240E002024
:1049240000B5044B81B0D87C08B1FFF7A1FF01B0FA
:1049340000BDC046240E002000B5DFF82CC00B4893
:1049440081B000211CF80120435C9A4206D008483B
:10495400FFF77AF84FF0FF3003F090E801311A299D
:10496400F0D101B000BDC046BC7B0008247C000827
:104974002B820008F0B5D14C83B02378012B0FD1E2
:1049840000F058FECE4B1B68C01ACE4B1A78CE4BA3
:1049940003EB4203B3F82031984214D3032310E00D
:1049A400022B12D100F046FEC84B1B68C01AC54B3F
:1049B4001A78C54B03EB4203B3F81231984202D381
:1049C4000423237001E0207876E1BC4B1B78032B91
:1049D4001ED100F0A5FBD8B9BD4F00243E5D304682
:1049E400FFF7F0FB054670B118210022FE20FFF707
:1049F4009FFB2A46B7483146FFF726F8AF4B0622FD
:104A04001A70062058E10134122CE7D100F0C4FAE0
:104A1400AA4C2378062B10D1AF4B1B78182B0CD142
:104A2400222140F2FF32FE20FFF73AFBFE2018213C
:104A34000122FFF77DFB00232370A24BA24E1978BD
:104A4400F47DA14240F08E809C4F3B78033BDBB267
:104A5400012B00F28780B17CA048FEF7F5FFDFF858
:104A640080C29CF80030012B0CD1F17C31B19D48FF
:104A7400FEF7EAFFF27C9C4B1A7054E08CF80010AD
:104A8400397005E0944B1B7853B9F27C12B93A7033
:104A9400002011E1944B1A7001238CF8003042E09D
:104AA400924C2378012B1D4613D1CDF804C000F09D
:104AB4003DFB0128DDF804C001D100232BE0F37C89
:104AC400894C13B923703B70E2E723708CF80050D3
:104AD40029E0874C337D21788B4213D9824B0131F5
:104AE4001A788448FEF7B0FF764B01221A702378B7
:104AF4003A70013323700120FFF7D8FD704B186022
:104B04003878D9E0B57C784C3DB121787A482A468A
:104B1400FEF79AFFB37C237005E021787748FEF70F
:104B240093FF3D70B4E7704B644C1878FFF710FEA8
:104B3400FFF7DAFD58B9634B01221A706C4B2270EF
:104B44001A700120FFF7B2FD5D4B186006E0FE20ED
:104B540018210022FFF7ECFA0623237000F06AFD07
:104B6400674B29E0554D2B78032B13D1564B03EBA0
:104B74004103B3F8123153B1574B1B783BB100F0EA
:104B840059FD524B186002232B70022094E04B4BCA
:104B940004221A70DFF824C19CF80000042812D102
:104BA400A1420BD2481C474BC0B2187001238CF8A9
:104BB4000030FFF77BFD424B18607BE000228CF84D
:104BC4000020494B75E0002876D1484B1B78012B17
:104BD40072D14C4A137813B11378112B08D93E4A79
:104BE40013782BB11378102B02D800F06DFB24E05E
:104BF40000F096FA002820DD37480378EBB10378FB
:104C0400102B1AD8384B404A19781F39A1FB0223BC
:104C1400DB08DBB2C3EB037203EB820301EB83011A
:104C240003780A290CBF0221002103EB430301EBA3
:104C340083011431354BC9B21970274E2A4C33788D
:104C4400324D1A46002B2FD02878FFF781FD2B78A0
:104C5400237000F0EFFC2A4B186000232B7033788C
:104C640023B13378102B98BF307800D9002000F09E
:104C740051FAFFF739FD114C05461C4E60B9114B32
:104C840001221A701A4B22701A700120FFF70EFDD0
:104C94000B4B357018600DE0134A002313701B4A48
:104CA40023701370337005E023702B700F4B1A7050
:104CB400024B1A70014B187803B0F0BDF4090020C0
:104CC400000A00207B0F0020240E0020F809002099
:104CD4003E7C000873820008740F0020A68200083E
:104CE400FD090020C9820008790F0020760F0020FA
:104CF400FC090020F28200081A830008438300089C
:104D04000C0A0020750F0020ABAAAAAA7A0F002073
:104D1400401A0028B8BF40424FF42F7303FB00F33E
:104D2400B3FBF2F398B240F2FF33984288BF1846BF
:104D340002D8192898BF1A207047C04630B50B4DC9
:104D44000B4C002140F2FF3C625A6B5A9B189BB2F9
:104D54001AB2002AB8BF002303DB6245C8BF40F281
:104D6400FF33435202312429EED130BD30110020EB
:104D740056100020044A00234FF00001D1520233A0
:104D8400242BF9D17047C04630110020024B013862
:104D940053F820007047C046E8100020024B013849
:104DA40033F910007047C04630110020014B1870D1
:104DB4007047C04654100020004870475610002029
:104DC400F0B59DB000F0E4FC464B00261B68019052
:104DD40000930127039600254349039B781E01EBAA
:104DE4000302CB5802900BB9002205E0019C9C42BF
:104DF40065D30023136001223C483D4B415B33F8EB
:104E040005E00FFA81FC8E452CD05953394B8CEABE
:104E1400EC72A2EBEC72585F374B019C03FB02F37C
:104E2400B3FBF0F39BB223442F4A039C1351334B3F
:104E3400029C33F81420CEEB01039B181CAA02EB4E
:104E440046011BB240F2FF329342A8BF1346002B27
:104E5400B8BF00231CAC21F8363C21F85A0C04EBF3
:104E6400060329E02648445B2648435BA3420CBF63
:104E7400134642F0010313B34453641840F2FF3362
:104E840024B29C42A8BF1C46029A1C4B002CB8BFFB
:104E9400002433F81210A4B289B22046009AFFF716
:104EA40037FF194B1CA95C5301EB460323F8364C1E
:104EB40023F85A0C01EB060303F8127C0136039A1B
:104EC400013704320235132F039285D146B130469F
:104ED4000DF15E010DF13A020DF11603FFF78CF8A6
:104EE4001DB0F0BD9C110020E810002030110020FE
:104EF400541100207811002080F00C00A00F002035
:104F0400561000207A100020C2100020431EDBB28D
:104F1400112B70B504460D46164602D90748FEF714
:104F240093FD074B601E53F820302BB9054B23F833
:104F34001050054B23F8106070BDC0465D83000817
:104F4400E8100020301100207811002000B540F254
:104F5400FF3281B0FFF7DAFF01B000BDF0B587B0D2
:104F640000260DF106070025002416B13B5D012B38
:104F740007D1084B2E21185DFFF700F93855284456
:104F8400C5B20134122CF0D10126002DEBD107B0AB
:104F9400F0BDC0463E7C000870B5064E064D0024A8
:104FA400305D2421FFF79CF825F814000134122CFD
:104FB400F6D170BD3E7C0008A00F0020F0B585B08E
:104FC40003900291019200F0ABF808B9FFF7E4FFF7
:104FD4001A4F00240025029B5A5B37F814301BB289
:104FE4009A42CBBF37F8143037F81430C3EB0203BE
:104FF4009B1A039A9EB2B1FBF2F3019A535300F049
:105004008FF818B1029A535B27F814304FF42F73BA
:1050140003FB06F1039A0134B1FBF2F39BB240F2B5
:10502400FF32934228BF1346019A192B98BF1A23C3
:1050340053530235122CCED105B0F0BDA00F002081
:10504400F0B5274B14461A78231E18BF0123002AF3
:1050540008BF43F0010381B00546002B33D021483B
:10506400214A0023CE5AC652CE5AD6520233242B9A
:10507400F8D11D48FFF762FE28461B491B4AFFF77B
:105084009DFF12201A49184A184BFEF7B5FF012C50
:1050940022D1FFF763FF164F00243E5D3046FFF731
:1050A40091F8054658B118210022FE20FFF740F878
:1050B400104831462A46FEF7C7FC01200DE00134B2
:1050C400122CEAD108E0074A0023C85AD05202330E
:1050D400242BFAD1084B1D60002001B0F0BDC0465E
:1050E4005410002056100020C21000209E100020F2
:1050F4003E7C0008A48300089C11002000B50449EC
:1051040081B001224FF4C870FFF79AFF01B000BDCF
:10511400507C0008014B18707047C046A011002055
:10512400014B18787047C046A01100204E4A1378EE
:10513400002B00F096801378102B00F29280DFF899
:105144002CC19CF80030012B23D11378072B19466E
:105154000DD147480278272A14BF00230123232AAC
:1051640008BF43F00103002B7BD16C2354E0137878
:10517400082B194675D13E480278252A14BF00230E
:105184000123212A08BF43F00103002B69D17A23AC
:1051940042E0072B0BD11378082B02D01378012B94
:1051A4005FD1334A13786F2B5BD024230CE0082B98
:1051B4000DD11378072B02D01378012B51D12C4A2F
:1051C4001378792B4DD026231370012245E0022B4E
:1051D40026D11378092B19460DD125480278312A96
:1051E40014BF002301232D2A08BF43F00103002B21
:1051F40037D17A3B10E013780A2B194631D11C4879
:105204000278332A14BF002301232F2A08BF43F056
:105214000103002B25D1703B03708CF800101EE0B5
:10522400092B0BD113780A2B02D01378022B18D137
:105234000F4A1378852B14D032230CE00A2B10D19B
:105244001378092B02D01378022B0AD1084A137859
:10525400932B06D0302313700222044B1A700120C2
:1052640000E000207047C046740F0020A011002009
:10527400790F0020431E012B0ED8104B1B88322BB4
:1052840001D8022018E00E490E4A0B784FF0FF3087
:10529400137001230B700FE0431C012B0BD8074B39
:1052A4001B88132B07D80649064A0B780120137074
:1052B40003230B7000E000207047C046720F0020EB
:1052C400740F0020750F002000B50B4881B0FEF765
:1052D400BBFB0A4B00221A70094B1F201A70094BA2
:1052E4001F221A70FFF7C4FAFE2030216422FEF751
:1052F400D7FE01B000BDC046D0830008A011002035
:10530400A1110020790F002000B5094B81B0C20023
:1053140031B153F830009B18998801F045FC05E041
:1053240053F830009B18998801F040FC01B000BD8F
:105334000400002010B5D0F1010438BF0024032874
:1053440014BF234644F0010323B13348022101F082
:105354002DFC0DE0012814BF00240124042814BFEF
:10536400234644F0010343B12B48022101F01CFC05
:105374002948042101F01AFC11E0022814BF00247A
:105384000124052814BF234644F0010303B3224833
:10539400022101F00BFC2048042101F005FC05204A
:1053A40000F0D0F844B11D48012100F095FF05201C
:1053B40000F0C8F8194807E01948012100F08CFFF3
:1053C400052000F0BFF8164800F0FEFF044621E077
:1053D400062818BF4FF400441CD1012207230D21D5
:1053E4000E4800F09BFF052000F0ACF801210B48AB
:1053F40000F072FF052000F0A5F8084800F0E4FF73
:105404000A21044601220548072300F087FF0520EE
:1054140000F098F8204610BD00100140002401401F
:105424000028014000B5062081B0FFF783FF000982
:1054340080B2722815D84FF4FA70642100F05CF839
:105444004FF4FA7041F2883100F056F84FF4FA70D4
:10545400642100F051F84FF4FA7041F2883100F001
:105464004BF801B000BDC04670B54400E6B201344B
:10547400054601213046E4B2FFF746FF00212046ED
:10548400FFF742FF192000F05DF82846FFF752FFAE
:10549400002105463046FFF737FF20460021FFF77D
:1054A40033FF284670BDC04600B5074B81B053F8A2
:1054B400302003EBC0039988104601F061FB0138EA
:1054C40018BF012001B000BD6400002000B5094BE5
:1054D40081B0C20031B153F830009B18998801F0B3
:1054E40065FB05E053F830009B18998801F05CFBDC
:1054F40001B000BD9400002030B581B00C460B4DC6
:1055040000F04CF80DE04021094801F04FFB204623
:1055140000F018F80648402101F046FB204600F050
:1055240011F82B68002BEED101B030BDB81100206A
:105534000008014000B5114181B0FFF7DDFF01B063
:1055440000BDC0460C4B1B6823B90C4A13780133C9
:10555400DBB213700928084904D9094AA0FB0223C5
:10556400DB0800E001230B60044B034A1B7813683B
:10557400002BFCD17047C046A8110020BC110020AC
:10558400CDCCCCCC00B5C0EB401300EB830081B094
:10559400C000FFF7D7FF01B000BDC046074B1B6832
:1055A40023B9074A13780133DBB21370642303FB76
:1055B40000F3024A1360024B1B787047B8110020B5
:1055C400BC1100200A4B1B6823B90A4A1378013323
:1055D400DBB213700928064904D9074AA0FB022349
:1055E400DB0800E001230B60024B1B787047C046C8
:1055F400B0110020BC110020CDCCCCCC0A4B1B68D0
:1056040023B90A4A13780133DBB213700928064917
:1056140004D9074AA0FB0223DB0800E001230B6046
:10562400024B1B787047C046B4110020BC11002007
:10563400CDCCCCCC034B04491A68A2FB01235809F6
:105644007047C046C01100201F85EB51024A136801
:10565400013313607047C046A4110020374B10B5C6
:105664001A6801321A60364A1368012B03D9136889
:10567400013B136009E013683BB11368013B1360FD
:10568400304A1378013BDBB213702F4C2368012B93
:105694000ED92368013B2360236813F4805F02D092
:1056A4000620012101E006200021FFF70FFF0DE095
:1056B40023685BB106200021FFF708FF2368214A15
:1056C400013B23601378013BDBB213701F4A13685C
:1056D400012B03D91368013B136009E013683BB144
:1056E4001368013B1360174A1378013BDBB2137054
:1056F400174A1368012B03D91368013B136009E0AF
:1057040013683BB11368013B13600E4A1378013BE5
:10571400DBB213700F4A1368012B03D91368013BE2
:10572400136009E013683BB11368013B1360054A39
:105734001378013BDBB2137010BDC046C0110020CA
:10574400A8110020BC110020AC110020B8110020C9
:10575400B0110020B411002000B50B4B81B01B68C0
:1057640023B90A4A13780133DBB21370642303FBB1
:1057740000F3054A06201360044B01211B78FFF750
:10578400A5FE01B000BDC046AC110020BC11002034
:1057940030B50E4C81B0256801F016FF2468A5428F
:1057A40005D0C4EB441304EB8303D8000CE0C0F52C
:1057B4000C5207492832A2FB0123C5EB451105EB26
:1057C4008101C90001EB530001B030BDA4110020D8
:1057D400398EE33800B5642081B0FFF7D3FE0A4B5D
:1057E4001868FEF71DFA6420FFF7CCFE074B186813
:1057F400FEF7B0FE6420FFF7C5FE054B1868FEF700
:105804000DFD01B000BDC046D4000020D000002032
:10581400CC00002000B55A2081B001F0ABFE01207D
:1058240001F0C4FE012001F0ABFE024B00221A700D
:1058340001B000BDBC11002070B586B001AD284692
:1058440000F008FD002402234FF460263248294664
:105854008DF8143001948DF808408DF809400396B2
:10586400049400F0D3FC01232C4829468DF814300D
:1058740001948DF808408DF809400396049400F0D3
:10588400C5FC25480A210122072300F047FD012217
:1058940007232248052100F041FD1F48012100F0A3
:1058A400E3FC1E48012100F0DFFC1B4800F0FCFC77
:1058B400194800F0FFFC0028FAD100F1804000F5FF
:1058C400943000F0F1FC154800F0F4FC0028FAD103
:1058D40000F1804000F5923000F0F2FC0E4800F038
:1058E400F5FC0028FAD100F1804000F5943000F076
:1058F400E7FC0A4800F0EAFC0028FAD100F18040F5
:10590400012100F5923000F0E7FC0448012100F089
:10591400E3FC06B070BDC0460024014000280140ED
:10592400F0B583B001AC714D2046032601F020F997
:10593400102740F60F1328462146ADF804308DF8A1
:1059440006608DF8077001F0BFF84FF482532846C3
:105954002146ADF804308DF806608DF8077001F02B
:10596400B3F84FF02003ADF8043028464FF000039D
:1059740021468DF8073001F0A7F84CF20003ADF88A
:10598400043028464FF0480305F5806521468DF81C
:10599400073001F099F84FF2000328462146ADF88C
:1059A40004308DF806608DF8077001F08DF84FF023
:1059B400300328462146ADF804308DF806608DF892
:1059C400077001F081F84FF40863ADF804302846FD
:1059D4004FF0040321468DF8073001F075F84FF4B9
:1059E4008863ADF8043028464FF0180321468DF83B
:1059F40007308DF8066001F067F84FF00803ADF842
:105A0400043028464FF0480305F5806521468DF89B
:105A1400073001F059F84FF4707328462146ADF869
:105A240004308DF806608DF8077001F04DF84FF0E2
:105A3400060328462146ADF804308DF806608DF83B
:105A4400077001F041F84EF2000328462146ADF8F4
:105A540004308DF806608DF8077001F035F84FF4C6
:105A64008053ADF8043028464FF0180321468DF8D2
:105A740007308DF8066001F027F84FF00903ADF800
:105A8400043028464FF0000321468DF8073001F01A
:105A94001BF84FF01003ADF8043028464FF04803CC
:105AA40021468DF8073001F00FF84FF44063ADF84C
:105AB400043028464FF0480321468DF8073001F0A2
:105AC40003F84FF0040321460948ADF804308DF87B
:105AD400073000F0F9FF0420012101F08FF8054898
:105AE400012101F08BF803B0F0BDC046000801406D
:105AF400001401400004300070B54FF4405182B0EE
:105B04004FF0006001F0F4F901AD4FF4C06001F012
:105B140051F901242523002628468DF804308DF8F8
:105B240005608DF806408DF8074001F04DF92723F4
:105B34008DF80430284603238DF806308DF805606F
:105B44008DF8074001F040F935238DF804302846DC
:105B540002238DF805608DF806308DF8074001F0BA
:105B640033F902B070BDC04600B581B001F022FB2C
:105B74004FF4803001F03EFB01F056FB012824D1A4
:105B8400102000F025FD022000F00AFD002001F0A5
:105B940095FB002001F0A6FB4FF4806001F098FB18
:105BA4004FF480304FF4E01101F066FB012001F066
:105BB4006DFB392001F096FC0028FAD0022001F098
:105BC4006BFB01F073FB0828FBD1012140F21C6040
:105BD40001F03EFC01214FF4804001F039FC012129
:105BE4004FF4802001F042FC4FF48010012101F0B9
:105BF4003DFC012001F06EFA01B000BD00B5094B77
:105C0400002281B01A70FFF7AFFFFFF775FFFFF7AF
:105C140087FEFFF7FFFDFFF70FFEFFF7DBFD01B087
:105C240000BDC046C8110020034B1868D0F1010024
:105C340038BF00207047C046B41100200B4B0C49FC
:105C44001A880B88934201D1FF200EE00B88094A81
:105C54009BB2D25C01339BB20B8010460A8840F29F
:105C6400FE339A4284BF00230B807047D215002074
:105C7400D4150020D0110020064B07491A880B8840
:105C8400934201D1FF2004E00B88044A9BB2D35C09
:105C940018467047D2150020D4150020D0110020DA
:105CA400034B4FF000021A80024B1A807047C04623
:105CB400D2150020D41500200F4910480A88038803
:105CC400934205D14FF000030B800380002011E0C4
:105CD40002880B88934206D90A88038892B29BB241
:105CE400D21AD0B206E00B8802889BB292B2013B72
:105CF4009B1AD8B27047C046D2150020D415002094
:105D0400F0B54FF0000C0C4683B005460E490F4F1A
:105D1400002611E00E4B0A781B789A4211D00B78BA
:105D2400FA5C0133DBB205F80C200B700B780CF134
:105D3400010C3F2B88BF0E705FFA8CF0A042E9D3B0
:105D4400204603B0F0BDC046CF110020D615002078
:105D5400CE11002007480023002140F2FF32C15435
:105D640001339342FBD1044B4FF000021A80034BE2
:105D74001A80704717160020CC110020CA11002089
:105D8400F0B54FF0000C0C4683B005461049114F96
:105D940040F2FE3614E0104B0A881B88934214D05C
:105DA4000B889BB2FA5C01339BB205F80C200B8084
:105DB4000B880CF1010C9BB2B34284BF00230B800F
:105DC4005FFA8CF0A042E6D3204603B0F0BDC04693
:105DD400CC11002017160020CA110020034B1868AC
:105DE400D0F1010038BF00207047C046B011002038
:105DF40000B5194881B040F2255101F017FD002883
:105E040028D0154801F0A4FC144940F2FD330A8857
:105E1400C0B29A42124A05D80B889BB2D0540133BF
:105E24009BB204E00B889BB2D0544FF000030B806C
:105E34000A4A0C490B8812889A4203D10B88013311
:105E44009BB20B80074940F2FE330A889A4284BF12
:105E540000230B8001B000BD00380140CA110020AE
:105E640017160020CC11002000B5C0EB001081B043
:105E74004000FFF7A7FB01B000BDC04670B5064661
:105E84000D4600241AE01048202100F08FFE0E4831
:105E9400102100F089FE315D0C4801F055FC0B48DF
:105EA400402101F0B7FC0028F9D00748102100F088
:105EB4007DFE0548202100F077FE0134E3B2AB42B9
:105EC400E1D3284670BDC046000C014000380140B3
:105ED40000B5034881B0002101F0BCFB01B000BD56
:105EE4000038014000B5002181B0054801F0B2FB43
:105EF40004484FF4805100F059FE01B000BDC04683
:105F0400005000400008014000B5034881B0002162
:105F140001F0A0FB01B000BD0048004030B585B0E1
:105F24000446684601F06AFB0094134C4FF00003EA
:105F3400ADF80430ADF80630ADF80830ADF80C30EB
:105F440020464FF00C03ADF80A3001F0EBFC0A20B8
:105F5400FFF718FB2046694601F096FC2046012213
:105F640040F2255101F084FB2046012101F072FB2F
:105F74006D46012005B030BD0038014030B585B014
:105F84000446684601F03AFB0094164C4FF00003B7
:105F9400ADF80430ADF80630ADF80830ADF80C308B
:105FA40020464FF00C03ADF80A3001F0BBFC0A2088
:105FB400FFF7E8FA2046694601F066FC0122204614
:105FC40040F2255101F054FB2046012101F042FB2F
:105FD40005484FF4805100F0E9FD6D46012005B0FD
:105FE40030BDC046005000400008014030B585B0C7
:105FF4000446684601F002FB0094134C4FF0000382
:10600400ADF80430ADF80630ADF80830ADF80C301A
:1060140020464FF00C03ADF80A3001F083FC0A204F
:10602400FFF7B0FA2046694601F02EFC2046012213
:1060340040F2255101F01CFB2046012101F00AFB2E
:106044006D46012005B030BD0048004010B51E4823
:1060540040F2255101F0EAFB002834D01A4801F03F
:1060640077FBC4B2232C194A03D113780133DBB272
:1060740000E000231370154B012105201B78FFF766
:1060840025FA134A134913783E2B04D81378CC54B9
:106094000133DBB202E01378CC54002313700E49B1
:1060A4000B4A0B781278934203D10B780133DBB29D
:1060B4000B70094A13783F2B01D900231370052074
:1060C4000021FFF703FA10BD00500040D015002056
:1060D400CE110020D6150020CF11002070B5064641
:1060E4000D46002412E004200121FFF7EFF9315D91
:1060F400094801F029FB0848402101F08BFB0028E6
:10610400F9D004200021FFF7E1F90134E3B2AB42F6
:10611400E9D3284670BDC0460050004010B522485F
:1061240040F2255101F082FB00283BD01E4801F0CB
:106134000FFBC4B2232C1D4A03D113780133DBB205
:1061440000E000231370194B012105201B78FFF791
:10615400BDF9174940F2FD330A889A42154A05D819
:106164000B889BB2D45401339BB204E00B889BB2DE
:10617400D4544FF000030B800D4A0F490B8812884A
:106184009A4203D10B8801339BB20B800A4940F237
:10619400FE330A889A4284BF00230B800520002125
:1061A400FFF794F910BDC04600480040D015002008
:1061B400D2150020D0110020D415002000B581B0E4
:1061C400FFF7ACFF01B000BD10B504460121042067
:1061D400A4B2FFF77BF90748214601F0B5FA054858
:1061E400402101F017FB0028F9D004200021FFF71B
:1061F4006DF910BD0048004000B50346C82081B0C9
:1062040000FB03F0FFF7FAF901B000BD43680A6828
:1062140023F4702323F4807313430A7943EA02239B
:106224004360CB688A68D0F808C01A43084B0CEA6C
:1062340003031A434B7942EA430282600B7CC26A2D
:10624400013B22F47002DBB242EA0352C26270479D
:10625400FDF7F1FF00230360037143718360C360A2
:10626400012303747047C04619B1836843F00103E6
:1062740002E0836823F001038360704719B18368E7
:1062840043F4807302E0836823F48073836070476F
:10629400C9B21AB1436841EA030302E0436823EA3E
:1062A400010343607047C046836843F0080383607A
:1062B4007047C0468068C00800F001007047C046BF
:1062C400836843F0040383607047C0468068800895
:1062D40000F001007047C04619B1836843F4A0037D
:1062E40002E0836823F4A003836070478068800D14
:1062F40000F001007047C0464368013923F460434D
:1063040043EA41334360704719B1436843F400637F
:1063140002E0436823F4006343607047092930B501
:1063240094460C461D464FEA41020BD912191E3AF7
:106334000723934015FA02F2C16821EA03011143CD
:10634400C16009E012190723934015FA02F20169AA
:1063540021EA030111430161BCF1060F0CD80CEBD7
:106364008C02053A1F23934014FA02F2416B21EA8E
:106374000301114341631BE0BCF10C0F4FEA8C0293
:106384000BD86244233A1F23934014FA02F2016BA0
:1063940021EA0301114301630AE06244413A1F23E5
:1063A400934014FA02F2C16A21EA03011143C16263
:1063B40030BDC04619B1836843F4801302E083689A
:1063C40023F4801383607047C06C80B27047C0466A
:1063D400014B18687047C0464C24014019B143680A
:1063E40043F4806302E0436823F4806343607047AE
:1063F40019B1436843F4805302E0436823F48053A3
:1064040043607047836823F4E04319438160704715
:1064140019B1836843F4004302E0836823F4004322
:106424008360704719B1836843F4021302E0836800
:1064340023F40213836070478068400D00F001006C
:106444007047C046092930B58C4615461C464FEAAC
:1064540041020BD962441E3A0723934014FA02F214
:10646400C16821EA03011143C16009E062440723C2
:10647400934014FA02F2016921EA03011143016114
:10648400836B1F2103F440126FEA12522A44033231
:10649400D2B202EB820291400CFA02F223EA010327
:1064A4001343836330BDC046836B013923F4401327
:1064B40043EA01538363704782B00A5002B07047C5
:1064C40082B001902830405880B202B07047C04674
:1064D400436823F4400323F4007319434160704775
:1064E400416282627047C046436823F01F03194328
:1064F4004160704720B1054A936843F4000303E008
:10650400024A936823F40003936070470024014017
:10651400036819420CBF0020012070476FEA010193
:10652400016070474268036813EA112301D1002017
:1065340004E0CBB213420CBF002001207047C046D8
:106544006FEA11210160704700B5144B83B0984283
:1065540001900FD003F5A053984213D0A3F5C05374
:10656400984219D14FF40070012100F08DFF4FF4CF
:1065740000700EE04FF48060012100F085FF4FF4BD
:10658400806006E04FF40040012100F07DFF4FF4ED
:106594000040002100F078FF03B000BD0028014056
:1065A400044A136803F03803136013681843106037
:1065B4007047C04600200240044A136823F00803D1
:1065C40013601368184310607047C04600200240EF
:1065D400044A136823F0100313601368184310600F
:1065E4007047C04600200240034B044A5A6002F13F
:1065F40088325A607047C046002002402301674534
:10660400024A136943F0800313617047002002407B
:10661400014BD8698008704700200240014B186A7A
:106624007047C04600200240024BD869400800F081
:106634000100704700200240024B1868400900F036
:10664400010070470020024021B1054A136940EA65
:10665400030303E0024A136923EA0003136170474A
:1066640000200240012804D1054BDB6903F001003E
:1066740005E0034BDB6818420CBF00200120704783
:1066840000200240014BD8607047C0460020024001
:10669400094AD36813F0010F01D001200BE0D3683D
:1066A40013F0040F01D0022005E0D36813F0100F9B
:1066B40014BF0320042070470020024010B5234A71
:1066C40082B0D368014613F0010F01D001202AE003
:1066D400D36813F0040F01D0022024E0D36813F030
:1066E400100F14BF032004201DE00194CDF804C052
:1066F40002E0019B013B0193019B002BF9D1D3687C
:1067040013F0010F01D001200BE0D36813F0040F44
:1067140001D0022005E0D36813F0100F14BF03204A
:106724000420013903E0094A00244FF0FF0C0B1E3A
:1067340018BF0123012814BF002303F00103002B19
:10674400D3D1002908BF052002B010BD00200240AB
:10675400F0B5134B134C81B0A36003F188330546A5
:10676400A3600F200E461746FFF7A8FF042815D193
:1067740023690D4A43F01003236145F0F80346EA08
:10678400030347EA030353800F20FFF797FF012811
:106794001FBF226941F6EF731340236101B0F0BDBE
:1067A400230167450020024000F8FF1F30B505466D
:1067B40081B040F6FF70FFF781FF04283CD11F4CE5
:1067C4001F4B00F57E60A36003F18833A360236947
:1067D4001B3043F020032361236943F0400323610A
:1067E400FFF76CFF042820D1236941F6DF7203EA26
:1067F40002022261236943F0100323611DB1114B8E
:106804004FF0000202E00F4B4FF0A5021A8040F651
:10681400FF70FFF753FF01280ED0084941F6EF73CC
:106824000A6902EA03030B6106E001281FBF22691B
:1068340041F6DF731340236101B030BD00200240F4
:106844002301674500F8FF1F10B504460F20FFF72A
:1068540035FF042850D1294A294B6FEA0404936078
:1068640003F1883393601369E1B243F01003FF2905
:10687400136104D0234B0F201981FFF71FFF04F489
:106884007F431A0AB2F1FF0318BF0123042814BF7F
:10689400002303F0010323B11A4B0F205A81FFF7A1
:1068A4000DFF04F47F031A0CB2F1FF0318BF012398
:1068B400042814BF002303F0010323B1114B0F205C
:1068C4009A81FFF7FBFE220EB2F1FF0318BF0123EA
:1068D400042814BF002303F0010323B1094B0F2044
:1068E400DA81FFF7EBFE01281FBF044941F6EF737D
:1068F4000A69134018BF0B6110BDC0460020024056
:106904002301674500F8FF1F70B506460F200D46AA
:10691400FFF7D4FE042814D10A4C0B4B0F20A360BC
:1069240003F18833A360236943F0100323613580A6
:10693400FFF7C4FE01281FBF226941F6EF7313401D
:10694400236170BD002002402301674570B50646EF
:106954000F200D46FFF7B2FE04280FD1084C0F207C
:10696400236943F0010323613580FFF7A7FE012863
:106974001FBF226941F6FE731340236170BDC046F8
:106984000020024070B506460F200D46FFF796FE24
:10699400042817D10C4C0F20236943F00103236111
:1069A400ABB23380FFF78AFE042804D12B0C73802A
:1069B4000F20FFF783FE01281FBF226941F6FE73F3
:1069C4001340236170BDC0460020024010B540F65C
:1069D400FF70FFF773FE04282CD1174C174B00F5FA
:1069E4007E60A36003F18833A36023691B3043F006
:1069F40020032361236943F040032361FFF75EFE14
:106A0400042810D1226941F6DF7302EA03032361EB
:106A140023694FF0A50243F010032361084B0F20B4
:106A24001A80FFF74BFE01281FBF226941F6EF735E
:106A34001340236110BDC046002002402301674576
:106A440000F8FF1F10B540F6FF70FFF737FE04286B
:106A540013D10A4C236903432361236900F57E6043
:106A640043F0400323611B30FFF728FE01281FBFBA
:106A7400226941F6FB731340236110BD00200240DC
:106A840030B5054681B040F6FF70FFF717FE0428C5
:106A940015D10C4C00F57E6023691B3043F00203D2
:106AA40023616561236943F040032361FFF706FE18
:106AB40001281FBF226941F6FD731340236101B011
:106AC40030BDC04600200240F0B5CD780E8815F0E8
:106AD400100F18BF8B7805F00F0718BF1F4316F06F
:106AE400FF0F83B01ED004680021012212FA01F3C3
:106AF40003EA060C9C4511D18A000F23934017FA30
:106B040002F224EA03041443282D019308BFC0F8B9
:106B140014C003D0482D08BFC0F810C001310829A3
:106B2400E3D10460FF2E20D944680021012201F141
:106B3400080312FA03F303EA060C9C4511D18A00F8
:106B44000F23934017FA02F224EA03041443282D76
:106B5400019308BFC0F814C003D0482D08BFC0F883
:106B640010C001310829E1D1446003B0F0BDC04632
:106B74004FF0FF330380022383700423C3707047F4
:106B8400836819420CBF002001207047806880B2DE
:106B94007047C046C36819420CBF002001207047EB
:106BA400C06880B27047C046016170474161704758
:106BB4000AB1016100E041617047C046C16070479D
:106BC40041F48033836181618361836983697047A0
:106BD400DFF818C04FF68073DCF8002041EA00119A
:106BE40002EA03031943CCF8001070470000014087
:106BF400014B18607047C0461C00204230B500F4B9
:106C0400401304040D461449240CB3F5401FD1F875
:106C140004C006D14B682CF0706223F070634B60A3
:106C240010E010F4801F05D000F47022120C03232E
:106C3400934003E0430D1B0114FA03F32CEA03030E
:106C440043F0706225B1430D1B0114FA03F31A4398
:106C5400014B5A6030BDC0460000014010B501F040
:106C64000304A4000F23A340A040DFF820C0890838
:106C740002315CF8212022EA03024CF821205CF85E
:106C8400213018434CF8210010BDC04600000140DB
:106C940000B50120012181B000F0F6FB01200021A4
:106CA40000F0F2FB01B000BD00B5274B83B0984261
:106CB40001902BD00CD8A3F5006398421AD003F5A9
:106CC400806398421CD0A3F5006398423AD10BE04C
:106CD4001E4B984226D003F58063984228D0A3F532
:106CE400006398422ED117E00420012100F0CCFB70
:106CF400042024E00820012100F0C6FB08201EE047
:106D04001020012100F0C0FB102018E020200121F8
:106D140000F0BAFB202012E04020012100F0B4FB77
:106D240040200CE08020012100F0AEFB802006E032
:106D34004FF48070012100F0A7FB4FF48070002114
:106D440000F0A2FB03B000BD00140140001C014090
:106D54000B4B4FF0FF316FF07042C3F880101846B0
:106D6400C3F88420C3F88011C3F8842100210022D1
:106D740002F1C00301320F2A40F82310F8D1704702
:106D840000E100E0094A4FF0206309495360002301
:106D94009360D160136153619361D3611362536251
:106DA400013B9362D36213637047C04600ED00E079
:106DB4000000FA0540F0BE60024B40F42020D86089
:106DC4007047C04600ED00E030B5C37805785BB38A
:106DD4001A4B4178DA681A4C6FEA020202F4E06254
:106DE400120AC2F1040399400F23D340827805F0BC
:106DF400030013400B43C0001B01FF228240834069
:106E04004FEA950C0CF1C00C54F82C10134021EAF5
:106E140002010B4344F82C3005F01F020123934078
:106E2400690944F8213008E005F01F02012393406A
:106E34006909034A203142F8213030BD00ED00E0F9
:106E440000E100E00023037043708370C370704757
:106E5400034B04485B6803EA0000000B7047C0461C
:106E640000ED00E000F03F0000F01F0301229A4013
:106E74004009054B403053F820001040904214BFA5
:106E8400002001207047C04600E100E0014B18607B
:106E94007047C04600EF00E04109012300F01F00E5
:106EA4008340024A603142F82130704700E100E03B
:106EB400024B58688005800D7047C04600ED00E025
:106EC40000F01F0301229A404009054B803053F81B
:106ED40020001040904214BF002001207047C0469B
:106EE40000E100E0014B18687047C04600ED00E087
:106EF40021F0604121F07F01014B0143996070470B
:106F040000ED00E0014A024BDA6070470400FA0524
:106F140000ED00E0014A024BDA6070470100FA0517
:106F240000ED00E021B1054A136940EA030303E0E0
:106F3400024A136923EA00031361704700ED00E07D
:106F440000F01F00012313FA00F021B1054A536A2F
:106F540040EA030303E0034A536A23EA000353624B
:106F64007047C04600ED00E010B5144CE3686FEACA
:106F7400030303F4E0631B0AC3F1040C01FA0CF1EC
:106F84004FF0FF0C2CFA03F31A400A4300F0C0013F
:106F9400400900F018000CFA00FC12018240890933
:106FA400063154F8213023EA0C0344F8213054F814
:106FB40021301A4344F8212010BDC04600ED00E002
:106FC400800A00F00F0001238340044A506A03EA58
:106FD4000000984214BF00200120704700ED00E03B
:106FE40000F01F0001238340024A51680B435360A1
:106FF4007047C04600ED00E000F01F000138012397
:107004008340024A51680B435360704700ED00E02F
:10701400800B00F00F0001238340044A506A03EA06
:107024000000984214BF00200120704700ED00E0EA
:10703400830C13F0030302D10D4BD86A17E0012B24
:1070440013D103F1604303F56C43FE33020D0133A6
:1070540002F00302996AD30031FA03F0022A14BF42
:1070640000F00F0000F0FF0001E0014B186B7047C7
:1070740000ED00E010F4800F0BBF024B014B586B86
:10708400986B704700ED00E000B581B000F0C4FCDF
:1070940001B000BD00B5000181B000F0BAFC01B040
:1070A40000BDC04600B581B000F0B1FC01B000BD28
:1070B40000B581B000F0A9FC01B000BD00B581B0FD
:1070C40000F0A1FC01B000BD00B581B000F099FC56
:1070D40001B000BD014B18607047C04620000E424D
:1070E400014B18607047C04610000E42034A1368F3
:1070F40023F0E003184310607047C046007000405E
:10710400014B18607047C046A0000E42034B5B68F9
:1071140018420CBF002001207047C0460070004098
:10712400024A136843EA800313607047007000400A
:107134000B4A00B5136881B043F00403136013686D
:1071440043F00203136002F1204202F5FA421032C6
:10715400136843F00403136000F02EFC01B000BD7B
:10716400007000400C4A00B5136881B023F003039B
:107174001843106002F1204202F5FA4210321368FB
:10718400012943F00403136002D100F015FC01E06F
:1071940000F014FC01B000BD0070004010B54FF0C9
:1071A40080542046012100F07DF92046002100F0A2
:1071B40079F910BD0D4A136843F001031360516857
:1071C4000B4B01EA03035360136823F0847323F425
:1071D40080331360136823F480231360536823F40B
:1071E400FE035360002393607047C04600100240C2
:1071F4000000FFF80B4AB0F5803F136823F4803396
:107204001360136823F48023136003D0B0F5802F38
:1072140007D102E01368034302E0136843F4A02398
:10722400136070470010024082B0002309490193A3
:107234000A68019B013312F4003F019303D1019BBF
:10724400B3F5A06FF4D1034B1868400C00F00100B3
:1072540002B0704700100240034A136823F0F80399
:1072640043EAC0031360704700100240014B1860EA
:107274007047C04600004242034A536823F47C131B
:10728400184308435060704700100240014B1860D7
:107294007047C04660004242034A536823F0030328
:1072A400184350607047C04600100240024B5868B3
:1072B40000F00C007047C04600100240034A5368B7
:1072C40023F0F003184350607047C046001002409A
:1072D400034A536823F4E063184350607047C04680
:1072E40000100240034A536823F4605343EAC00386
:1072F400536070470010024021B1054A137840EAF8
:10730400030303E0024A137823EA0003137070476F
:1073140009100240014B18607047C046D800424231
:10732400034A536823F44043184350607047C046EF
:1073340000100240064A002301281370137008BF8E
:10734400107003D0042801D1052313707047C04680
:1073540020100240014B18607047C046800442422E
:10736400024A136A184310627047C0460010024074
:10737400014B18607047C0463C0442422949844688
:107384004B6803F00C03042B21D0082B1FD14B684E
:1073940003F470139B0C9A1C4B6813F4803F08BFD2
:1073A400C2EB421306D04B6813F4003F4FEA42137A
:1073B40006D09B1AC3EB831302EBC3031B0207E043
:1073C4009B1AC3EB831302EBC3035B0200E0164B6F
:1073D4001448CCF800304368144A03F0F0031B0946
:1073E400D35CDCF80010D940CCF80410436803F4F3
:1073F400E0631B0AD35C31FA03F3CCF8083043682A
:1074040003F46053DB0AD35C094AD940CCF80C106E
:10741400436803F440439B0BD35CB1FBF3F1CCF81A
:10742400101070470010024000127A00767C0008A9
:10743400867C000821B1054A536940EA030303E04E
:10744400024A536923EA0003536170470010024063
:1074540021B1054A936940EA030303E0024A9369B0
:1074640023EA0003936170470010024021B1054AEA
:10747400D36940EA030303E0024AD36923EA000321
:10748400D36170470010024021B1054AD36840EA35
:10749400030303E0024AD36823EA0003D36070477E
:1074A4000010024021B1054A136940EA030303E0D6
:1074B400024A136923EA0003136170470010024073
:1074C400014B18607047C04640044242014B1860AB
:1074D4007047C0464C004242014B18707047C0468A
:1074E400071002404309012B08D103F1804303F53F
:1074F400023303F5FF6307331B680CE0022B08D14A
:1075040003F1804303F5023303F5FF6306331B6A7B
:1075140001E0044B5B6A00F01F0033FA00F000F056
:107524000100704700100240024A536A43F080731E
:107534005362704700100240034B9B6818420CBF13
:10754400002001207047C04600100240014B187013
:107554007047C0460A100240042803D1044A136845
:10756400034303E0024A136823F0040313607047E3
:1075740010E000E0014B58607047C04610E000E0A6
:10758400012803D1084A1368034306E010F1020FEF
:1075940005D1054A136823F00103136002E0024B8E
:1075A40000229A607047C04610E000E020B1054A0E
:1075B400136843F0020303E0024A136823F0020352
:1075C4001360704710E000E0014B98687047C046B4
:1075D40010E000E0C308022B024606D103F1604329
:1075E40003F560430E33186801E0034BD868D040BC
:1075F40000F001007047C04610E000E04FF416535D
:1076040003604FF000038380C38003814FF00C03B9
:1076140043814FF0000383817047C046B1F800C036
:107624004B88028A43EA0C03B1F804C0C98822F4E7
:10763400706243EA0C0312040B43120C9BB2134313
:10764400038270474FF00003038043808380C3802C
:107654007047C04621B183899BB243F4005304E0D0
:10766400838923F400531B041B0C83817047C04699
:10767400CBB24FEA531C01F01F01012382B013FA6D
:1076840001F1BCF1010F019001D10C3005E0BCF116
:10769400020F01D1103000E0143012B103680B4323
:1076A40002E0036823EA0103036002B07047C046A6
:1076B40022B1838A9BB241EA030303E0838A9BB22B
:1076C40023EA010383827047038A23F00F031B0418
:1076D4001B0C0382038A9BB20B4303827047C04690
:1076E400838923F400631B041B0C838183899BB26D
:1076F400194381817047C04621B183899BB243F00D
:10770400020304E0838923F002031B041B0C83811E
:107714007047C046038A23F020031B041B0C03821A
:10772400038A9BB2194301827047C04621B1038A80
:107734009BB243F4804304E0038A23F480431B0494
:107744001B0C03827047C046C905C90D8180704770
:107754008088C005C00D704783899BB243F0010344
:1077640083817047038BDBB20383038B9BB243EAB1
:10777400012303837047C046038B03F47F430383D1
:10778400038B9BB20B4303837047C04621B1838AAA
:107794009BB243F0200304E0838A23F020031B04FC
:1077A4001B0C83827047C04621B1838A9BB243F08D
:1077B400100304E0838A23F010031B041B0C838250
:1077C4007047C04621B1838A9BB243F0080304E0AA
:1077D400838A23F008031B041B0C83827047C04672
:1077E400838A23F004031B041B0C8382838A9BB2C9
:1077F400194381827047C04621B1838A9BB243F00A
:10780400020304E0838A23F002031B041B0C83821B
:107814007047C046038819420CBF002001207047FE
:107824006FEA010189B201807047C046CBB24FEACA
:10783400531C01F01F02012313FA02F2BCF1010FE1
:1078440008BF838904D0BCF1020F0CBF038A838A6A
:107854009BB202EA030C0B0A01229A4003889BB2F2
:107864001A420CBF00200120BCF1000F0CBF002005
:1078740000F001007047C046090A01238B406FEAFB
:1078840003039BB203807047038ACA8823F44053DE
:107894001B041B0C13430382828970B50B890E46AB
:1078A400898822F4B0520B43718922F00C020B43F5
:1078B4001204120C9BB213438381838AB28923F48A
:1078C40040731B041B0C88B013430546838201904C
:1078D400044603A8FFF752FD104B11489D420CBF0C
:1078E400069B059B03EB8301336801EB81019B003D
:1078F400B1FBF3F1A1FB002364224FEA531C0CFB00
:10790400121212013232A2FB00235B0903F00F03AF
:1079140043EA0C139BB22B8108B070BD00380140C0
:107924001F85EB5100B5224B83B0984201902BD0B8
:1079340008D8A3F50063984216D003F580639842F3
:1079440034D119E01B4B984226D003F56843984282
:107954002CD101214FF48040FFF796FD4FF4804075
:107964000021FFF791FD21E04FF400300121FFF7E2
:1079740099FD4FF4003016E04FF480200121FFF709
:1079840091FD4FF480200EE04FF400200121FFF719
:1079940089FD4FF4002006E04FF480100121FFF729
:1079A40081FD4FF480100021FFF77CFD03B000BD82
:1079B400004C00400050004030BF704720BF70476B
:1079C40040BF7047BFF36F8F7047BFF34F8F70474F
:1079D400BFF35F8F704701DF7047EFF31480704788
:1079E40080F31488BFF36F8F7047EFF309807047FB
:1079F40080F309887047EFF30880704780F30888A4
:107A0400704772B6704762B6704771B6704761B618
:107A1400704780F311887047EFF31280704740BAC3
:107A2400704700BA704700002DF0070168468D4684
:107A340001B500220C49DFF834C00D4802E0835838
:107A44008B50043201EB02036345F8D3094B0A4916
:107A5400002201E043F8042B8B42FBD3FBF76AFBC3
:107A6400BDE801408546704700000020E004002086
:107A7400E0830008E0040020181A00200010A0E3AE
:107A84000040A0E1080000EB18309FE5000093E5FA
:107A94003C2090E5000052E30FE0A01112FF2F11EB
:107AA4000400A0E1A1EDFFFA8C7C0008F04F2DE961
:107AB400FC309FE500A093E50CD04DE248319AE5F7
:107AC40004008DE50170A0E10190A0E300B0A0E303
:107AD400006053E20D00000A043093E5015053E2C4
:107AE4000A00004A423083E20331A0E1034086E009
:107AF400000057E30800000A043014E5070053E1CE
:107B04000500000A015055E2044044E2F7FFFF5A21
:107B14000CD08DE2F04FBDE81EFF2FE1043096E556
:107B240004C114E5013043E2050053E10450860525
:107B340004B1041500005CE3F1FFFF0A1925A0E17C
:107B4400883196E5030012E1048096E50B00000AF3
:107B54008C3196E5030012E11100001A04009DE542
:107B6400841014E50FE0A0E11CFF2FE1043096E53A
:107B7400080053E10600000A48319AE5D3FFFFEA02
:107B84000FE0A0E11CFF2FE1043096E5080053E16B
:107B9400F8FFFF1A48319AE5060053E1CBFFFF1ABC
:107BA400D7FFFFEA840014E50FE0A0E11CFF2FE1FA
:107BB400EDFFFFEA8C7C00080001010101010101D5
:107BC40001010101010101010101010000000000A6
:107BD40000002003FF033403820352035203000214
:107BE400E7021D0207038002C8030C02F7035203D5
:107BF40059023C02D9020000C8008200FD00A7001F
:107C0400D50018010002F800E20131007F011C00D8
:107C1400F301A601B5002601BC01000000320408EE
:107C24000001010101010101010101010101010141
:107C34000101010000000000000001020304050628
:107C44000708090A0B0C0D0E0F101112EB00140398
:107C54001701E802CE01310266019A02FB01040217
:107C64005501AA02F0000F0387027801FB01040208
:107C7400900100000000010203040102030406074E
:107C84000809020406080000E00000205374617231
:107C940074696E672050726F6772616D206279201B
:107CA4007475726E696E67206F6E20504F5745521F
:107CB400204C4544210D0A005043553A0028627077
:107CC40073290A005A49473A0044584C3A00202A7A
:107CD40020092A205475726E206F6E204C4544731F
:107CE400210D0A00202A20092A205475726E206F63
:107CF4006666204C454473210D0A007B002C2A2023
:107D0400002A2C2000202841582D31322900202817
:107D140041582D31382900202841582D533129004C
:107D2400202841582D533230290020284A482D4616
:107D34005053290020284D582D323829007D200A1F
:107D4400000A44584C20444556494345533A000AD6
:107D54007E7E7E7E7E7E7E7E7E7E7E7E7E7E7E7E3F
:107D64007E7E7E7E7E7E7E7E7E7E7E7E7E7E7E7E2F
:107D74007E7E7E7E7E7E7E7E0A000A506C617969FC
:107D84006E6720536F6D65206D757369630A000A11
:107D94002849525F4C2C2049525F522C20444D53A9
:107DA400293A0928000A5550205550205550206979
:107DB400732070726573736564210A000A444F5717
:107DC4004E20444F574E20444F574E206973207025
:107DD400726573736564210A000A4C454654204C4D
:107DE400454654204C45465420697320707265738F
:107DF400736564210A000A5249474854205249478E
:107E0400485420524947485420697320707265735E
:107E1400736564210A000A53544152542053544157
:107E24005254205354415254206973207072657324
:107E3400736564210A000A4D4943204D4943204D8E
:107E44004943204D4943204D4943204D494D494321
:107E5400204D4943204D494D4943204D4943204D30
:107E6400494D4943204D4943204D494D4943204DF7
:107E74004943204D494D4943204D4943204D494DE7
:107E84004943204D4943204D494D4943204D4943E1
:107E9400204D494D4943204D4943204D494D4943C7
:107EA400204D4943204D4969732070726573736591
:107EB40064210A000A5761697420666F7220636F37
:107EC4006D6D616E640A000A44584C5F5458464113
:107ED400494C3A204661696C6564207472616E7322
:107EE4006D697420696E737472756374696F6E2042
:107EF4007061636B6574210A000A44584C5F5258E0
:107F04004641494C3A204661696C65642067657452
:107F140020737461747573207061636B657420667B
:107F2400726F6D20646576696365210A000A44589E
:107F34004C5F54584552524F523A20496E636F7207
:107F44007265637420696E737472756374696F6E9D
:107F5400207061636B6574210A000A44584C5F42C7
:107F640041445F494E53543A20496E76616C6964CA
:107F740020496E737472756374696F6E20627974CC
:107F8400650A000A44584C5F4241445F49443A2020
:107F940049442773206E6F742073616D6520666F8A
:107FA4007220696E737472756374696F6E20616E8A
:107FB4006420737461747573207061636B6574738A
:107FC4000A000A44584C5F525857414954494E4795
:107FD4003A204E6F7720726563656976696E672013
:107FE400737461747573207061636B6574210A0026
:107FF4000A44584C5F525854494D454F55543A2001
:108004005468657265206973206E6F20737461749F
:108014007573207061636B6574210A000A44584CBF
:108024005F5258434845434B53554D3A20496E637C
:108034006F727265637420737461747573207061F8
:10804400636B657420636865636B73756D210A00E7
:108054000A496E70757420766F6C7461676520656B
:1080640072726F72210A000A416E676C65206C6936
:108074006D6974206572726F72210A000A4F766509
:108084007268656174206572726F72210A000A4F0A
:108094007574206F662072616E6765206572726FF9
:1080A40072210A000A436865636B73756D206572FB
:1080B400726F72210A000A4F7665726C6F616420D8
:1080C4006572726F72210A000A496E737472756365
:1080D40074696F6E20636F6465206572726F7221BC
:1080E4000A006D6F74696F6E2E633A204375727265
:1080F400656E744D6F74696F6E3A0A002052657034
:1081040065617454696D653D2564200A2053746566
:1081140070733D2564200A20537065656452617450
:108124006531303D2564200A20496E6572746961A9
:108134006C466F7263653D2564200A204E65787431
:10814400506167653D2564200A2045786974506153
:1081540067653D2564200A002053746570733A0AEC
:1081640000202020737465702025693A20706C61AA
:10817400793D25642070617573653D25640A20206E
:1081840000256420004A6F696E7420666C65783A35
:108194000A20000A7365744D6F74696F6E506167CD
:1081A400654A6F696E74466C65786962696C697456
:1081B40079204343572049442569202D20000A553E
:1081C4006E7061636B204D6F74696F6E20506167D0
:1081D400652025692C2053746570202569202D2085
:1081E4007275626269736820646174612E205354ED
:1081F4004F502E000A536572766F20494425692C2E
:1082040020537465702056616C7565203D20256986
:108214002C204D696E203D2025692C204D6178204D
:108224003D202569200A000A436F6E6669677572EE
:108234006174696F6E206F6620656E61626C65643F
:108244002041582D313220736572766F7320646F2C
:108254006573206E6F74206D61746368206D6F7434
:10826400696F6E2E682E2041424F5254210A000A33
:10827400657865637574654D6F74696F6E53657168
:1082840075656E636520416C61726D204944256992
:10829400202D204572726F7220436F64652025691A
:1082A4000A004D6F74696F6E20737465702066697F
:1082B4006E69736865643A206E65787450616765A9
:1082C4002025640A00476F696E6720746F20657803
:1082D40069742070616765202866726F6D20657807
:1082E40069742070616765293A2025640A00526523
:1082F40070656174696E67206D6F74696F6E20704C
:10830400616765202825642774682074696D652970
:108314003A2025640A00537769746368696E67209C
:10832400746F206E657874206D6F74696F6E207041
:108334006167653A202564202D3E2025640A0046A5
:10834400696E6973686564206D6F74696F6E2070FF
:108354006167653A2025640A007365744A6F696E23
:10836400744F6666736574427949643A20696E761F
:10837400616C696420736572766F2069642C206473
:10838400696420796F7520706572686170732073F9
:10839400656E642074686520696E6465783F0A00C0
:1083A4000A6D6F7665546F476F616C506F7365200B
:1083B400416C61726D2049442569202D20457272FB
:1083C4006F7220436F64652025690A0077616C6BC6
:0C83D4005F696E69740A0000430000003D
:1083E00002000000000801400100000000080140F8
:1083F00002000000000801400400000000080140E5
:108400000800000000100140400000000010014082
:108410008000000000100140000100000010014039
:1084200000020000000801400001000000080140B7
:1084300000080000000C014000010000000C014099
:108440000002000000100140000800000010014080
:108450000004000000080140008000000008014006
:1084600000400000000C0140080000000010014026
:10847000100000000010014000200000000C01402E
:1084800000200000000C014000400000000C0140F2
:10849000008000000010014000400000001001407A
:1084A00000800000000C01400010000040420F005E
:1084B00000E1000000E10000E000002000000000FA
:1084C00000000000CC0300202804002084040020C9
:1084D000000000000000000000000000000000009C
:1084E000000000000000000000000000000000008C
:1084F00000000000DC830008000000000000000015
:10850000000000000000000000000000000000006B
:10851000000000000000000000000000000000005B
:10852000000000000000000000000000000000004B
:10853000000000000000000000000000000000003B
:10854000000000000000000000000000000000002B
:10855000000000000000000000000000000000001B
:10856000000000000000000001000000000000000A
:108570000E33CDAB34126DE6ECDE05000B000000CF
:1085800000000000000000000000000000000000EB
:1085900000000000000000000000000000000000DB
:1085A00000000000000000000000000000000000CB
:1085B00000000000000000000000000000000000BB
:00000001FF
